{
	"TokenVesting.sol": {
		"TokenVesting": {
			"abi": [
				{
					"inputs": [
						{
							"internalType": "address",
							"name": "_beneficiary",
							"type": "address"
						}
					],
					"stateMutability": "payable",
					"type": "constructor"
				},
				{
					"inputs": [],
					"name": "CLIFF_DURATION",
					"outputs": [
						{
							"internalType": "uint256",
							"name": "",
							"type": "uint256"
						}
					],
					"stateMutability": "view",
					"type": "function"
				},
				{
					"inputs": [],
					"name": "VESTING_DURATION",
					"outputs": [
						{
							"internalType": "uint256",
							"name": "",
							"type": "uint256"
						}
					],
					"stateMutability": "view",
					"type": "function"
				},
				{
					"inputs": [],
					"name": "beneficiary",
					"outputs": [
						{
							"internalType": "address",
							"name": "",
							"type": "address"
						}
					],
					"stateMutability": "view",
					"type": "function"
				},
				{
					"inputs": [],
					"name": "claim",
					"outputs": [],
					"stateMutability": "nonpayable",
					"type": "function"
				},
				{
					"inputs": [],
					"name": "claimableAmount",
					"outputs": [
						{
							"internalType": "uint256",
							"name": "",
							"type": "uint256"
						}
					],
					"stateMutability": "view",
					"type": "function"
				},
				{
					"inputs": [],
					"name": "releasedAmount",
					"outputs": [
						{
							"internalType": "uint256",
							"name": "",
							"type": "uint256"
						}
					],
					"stateMutability": "view",
					"type": "function"
				},
				{
					"inputs": [],
					"name": "startTime",
					"outputs": [
						{
							"internalType": "uint256",
							"name": "",
							"type": "uint256"
						}
					],
					"stateMutability": "view",
					"type": "function"
				},
				{
					"inputs": [],
					"name": "totalAmount",
					"outputs": [
						{
							"internalType": "uint256",
							"name": "",
							"type": "uint256"
						}
					],
					"stateMutability": "view",
					"type": "function"
				}
			],
			"devdoc": {
				"details": "Implements block.timestamp for time tracking and linear release.",
				"kind": "dev",
				"methods": {},
				"title": "TokenVesting",
				"version": 1
			},
			"evm": {
				"assembly": "    /* \"TokenVesting.sol\":221:2124  contract TokenVesting {... */\n  mstore(0x40, 0x80)\n    /* \"TokenVesting.sol\":710:928  constructor(address _beneficiary) payable {... */\n  mload(0x40)\n  sub(codesize, bytecodeSize)\n  dup1\n  bytecodeSize\n  dup4\n  codecopy\n  dup2\n  dup2\n  add\n  0x40\n  mstore\n  dup2\n  add\n  swap1\n  tag_1\n  swap2\n  swap1\n  tag_2\n  jump\t// in\ntag_1:\n    /* \"TokenVesting.sol\":783:784  0 */\n  0x00\n    /* \"TokenVesting.sol\":771:780  msg.value */\n  callvalue\n    /* \"TokenVesting.sol\":771:784  msg.value > 0 */\n  gt\n    /* \"TokenVesting.sol\":763:811  require(msg.value > 0, \"Must fund the contract\") */\n  tag_5\n  jumpi\n  mload(0x40)\n  0x08c379a000000000000000000000000000000000000000000000000000000000\n  dup2\n  mstore\n  0x04\n  add\n  tag_6\n  swap1\n  tag_7\n  jump\t// in\ntag_6:\n  mload(0x40)\n  dup1\n  swap2\n  sub\n  swap1\n  revert\ntag_5:\n    /* \"TokenVesting.sol\":836:848  _beneficiary */\n  dup1\n    /* \"TokenVesting.sol\":822:833  beneficiary */\n  0x00\n  0x00\n    /* \"TokenVesting.sol\":822:848  beneficiary = _beneficiary */\n  0x0100\n  exp\n  dup2\n  sload\n  dup2\n  0xffffffffffffffffffffffffffffffffffffffff\n  mul\n  not\n  and\n  swap1\n  dup4\n  0xffffffffffffffffffffffffffffffffffffffff\n  and\n  mul\n  or\n  swap1\n  sstore\n  pop\n    /* \"TokenVesting.sol\":871:886  block.timestamp */\n  timestamp\n    /* \"TokenVesting.sol\":859:868  startTime */\n  0x01\n    /* \"TokenVesting.sol\":859:886  startTime = block.timestamp */\n  dup2\n  swap1\n  sstore\n  pop\n    /* \"TokenVesting.sol\":911:920  msg.value */\n  callvalue\n    /* \"TokenVesting.sol\":897:908  totalAmount */\n  0x02\n    /* \"TokenVesting.sol\":897:920  totalAmount = msg.value */\n  dup2\n  swap1\n  sstore\n  pop\n    /* \"TokenVesting.sol\":710:928  constructor(address _beneficiary) payable {... */\n  pop\n    /* \"TokenVesting.sol\":221:2124  contract TokenVesting {... */\n  jump(tag_8)\n    /* \"#utility.yul\":88:205   */\ntag_10:\n    /* \"#utility.yul\":197:198   */\n  0x00\n    /* \"#utility.yul\":194:195   */\n  0x00\n    /* \"#utility.yul\":187:199   */\n  revert\n    /* \"#utility.yul\":334:460   */\ntag_12:\n    /* \"#utility.yul\":371:378   */\n  0x00\n    /* \"#utility.yul\":411:453   */\n  0xffffffffffffffffffffffffffffffffffffffff\n    /* \"#utility.yul\":404:409   */\n  dup3\n    /* \"#utility.yul\":400:454   */\n  and\n    /* \"#utility.yul\":389:454   */\n  swap1\n  pop\n    /* \"#utility.yul\":334:460   */\n  swap2\n  swap1\n  pop\n  jump\t// out\n    /* \"#utility.yul\":466:562   */\ntag_13:\n    /* \"#utility.yul\":503:510   */\n  0x00\n    /* \"#utility.yul\":532:556   */\n  tag_25\n    /* \"#utility.yul\":550:555   */\n  dup3\n    /* \"#utility.yul\":532:556   */\n  tag_12\n  jump\t// in\ntag_25:\n    /* \"#utility.yul\":521:556   */\n  swap1\n  pop\n    /* \"#utility.yul\":466:562   */\n  swap2\n  swap1\n  pop\n  jump\t// out\n    /* \"#utility.yul\":568:690   */\ntag_14:\n    /* \"#utility.yul\":641:665   */\n  tag_27\n    /* \"#utility.yul\":659:664   */\n  dup2\n    /* \"#utility.yul\":641:665   */\n  tag_13\n  jump\t// in\ntag_27:\n    /* \"#utility.yul\":634:639   */\n  dup2\n    /* \"#utility.yul\":631:666   */\n  eq\n    /* \"#utility.yul\":621:684   */\n  tag_28\n  jumpi\n    /* \"#utility.yul\":680:681   */\n  0x00\n    /* \"#utility.yul\":677:678   */\n  0x00\n    /* \"#utility.yul\":670:682   */\n  revert\n    /* \"#utility.yul\":621:684   */\ntag_28:\n    /* \"#utility.yul\":568:690   */\n  pop\n  jump\t// out\n    /* \"#utility.yul\":696:839   */\ntag_15:\n    /* \"#utility.yul\":753:758   */\n  0x00\n    /* \"#utility.yul\":784:790   */\n  dup2\n    /* \"#utility.yul\":778:791   */\n  mload\n    /* \"#utility.yul\":769:791   */\n  swap1\n  pop\n    /* \"#utility.yul\":800:833   */\n  tag_30\n    /* \"#utility.yul\":827:832   */\n  dup2\n    /* \"#utility.yul\":800:833   */\n  tag_14\n  jump\t// in\ntag_30:\n    /* \"#utility.yul\":696:839   */\n  swap3\n  swap2\n  pop\n  pop\n  jump\t// out\n    /* \"#utility.yul\":845:1196   */\ntag_2:\n    /* \"#utility.yul\":915:921   */\n  0x00\n    /* \"#utility.yul\":964:966   */\n  0x20\n    /* \"#utility.yul\":952:961   */\n  dup3\n    /* \"#utility.yul\":943:950   */\n  dup5\n    /* \"#utility.yul\":939:962   */\n  sub\n    /* \"#utility.yul\":935:967   */\n  slt\n    /* \"#utility.yul\":932:1051   */\n  iszero\n  tag_32\n  jumpi\n    /* \"#utility.yul\":970:1049   */\n  tag_33\n  tag_10\n  jump\t// in\ntag_33:\n    /* \"#utility.yul\":932:1051   */\ntag_32:\n    /* \"#utility.yul\":1090:1091   */\n  0x00\n    /* \"#utility.yul\":1115:1179   */\n  tag_34\n    /* \"#utility.yul\":1171:1178   */\n  dup5\n    /* \"#utility.yul\":1162:1168   */\n  dup3\n    /* \"#utility.yul\":1151:1160   */\n  dup6\n    /* \"#utility.yul\":1147:1169   */\n  add\n    /* \"#utility.yul\":1115:1179   */\n  tag_15\n  jump\t// in\ntag_34:\n    /* \"#utility.yul\":1105:1179   */\n  swap2\n  pop\n    /* \"#utility.yul\":1061:1189   */\n  pop\n    /* \"#utility.yul\":845:1196   */\n  swap3\n  swap2\n  pop\n  pop\n  jump\t// out\n    /* \"#utility.yul\":1202:1371   */\ntag_16:\n    /* \"#utility.yul\":1286:1297   */\n  0x00\n    /* \"#utility.yul\":1320:1326   */\n  dup3\n    /* \"#utility.yul\":1315:1318   */\n  dup3\n    /* \"#utility.yul\":1308:1327   */\n  mstore\n    /* \"#utility.yul\":1360:1364   */\n  0x20\n    /* \"#utility.yul\":1355:1358   */\n  dup3\n    /* \"#utility.yul\":1351:1365   */\n  add\n    /* \"#utility.yul\":1336:1365   */\n  swap1\n  pop\n    /* \"#utility.yul\":1202:1371   */\n  swap3\n  swap2\n  pop\n  pop\n  jump\t// out\n    /* \"#utility.yul\":1377:1549   */\ntag_17:\n    /* \"#utility.yul\":1517:1541   */\n  0x4d7573742066756e642074686520636f6e747261637400000000000000000000\n    /* \"#utility.yul\":1513:1514   */\n  0x00\n    /* \"#utility.yul\":1505:1511   */\n  dup3\n    /* \"#utility.yul\":1501:1515   */\n  add\n    /* \"#utility.yul\":1494:1542   */\n  mstore\n    /* \"#utility.yul\":1377:1549   */\n  pop\n  jump\t// out\n    /* \"#utility.yul\":1555:1921   */\ntag_18:\n    /* \"#utility.yul\":1697:1700   */\n  0x00\n    /* \"#utility.yul\":1718:1785   */\n  tag_38\n    /* \"#utility.yul\":1782:1784   */\n  0x16\n    /* \"#utility.yul\":1777:1780   */\n  dup4\n    /* \"#utility.yul\":1718:1785   */\n  tag_16\n  jump\t// in\ntag_38:\n    /* \"#utility.yul\":1711:1785   */\n  swap2\n  pop\n    /* \"#utility.yul\":1794:1887   */\n  tag_39\n    /* \"#utility.yul\":1883:1886   */\n  dup3\n    /* \"#utility.yul\":1794:1887   */\n  tag_17\n  jump\t// in\ntag_39:\n    /* \"#utility.yul\":1912:1914   */\n  0x20\n    /* \"#utility.yul\":1907:1910   */\n  dup3\n    /* \"#utility.yul\":1903:1915   */\n  add\n    /* \"#utility.yul\":1896:1915   */\n  swap1\n  pop\n    /* \"#utility.yul\":1555:1921   */\n  swap2\n  swap1\n  pop\n  jump\t// out\n    /* \"#utility.yul\":1927:2346   */\ntag_7:\n    /* \"#utility.yul\":2093:2097   */\n  0x00\n    /* \"#utility.yul\":2131:2133   */\n  0x20\n    /* \"#utility.yul\":2120:2129   */\n  dup3\n    /* \"#utility.yul\":2116:2134   */\n  add\n    /* \"#utility.yul\":2108:2134   */\n  swap1\n  pop\n    /* \"#utility.yul\":2180:2189   */\n  dup2\n    /* \"#utility.yul\":2174:2178   */\n  dup2\n    /* \"#utility.yul\":2170:2190   */\n  sub\n    /* \"#utility.yul\":2166:2167   */\n  0x00\n    /* \"#utility.yul\":2155:2164   */\n  dup4\n    /* \"#utility.yul\":2151:2168   */\n  add\n    /* \"#utility.yul\":2144:2191   */\n  mstore\n    /* \"#utility.yul\":2208:2339   */\n  tag_41\n    /* \"#utility.yul\":2334:2338   */\n  dup2\n    /* \"#utility.yul\":2208:2339   */\n  tag_18\n  jump\t// in\ntag_41:\n    /* \"#utility.yul\":2200:2339   */\n  swap1\n  pop\n    /* \"#utility.yul\":1927:2346   */\n  swap2\n  swap1\n  pop\n  jump\t// out\n    /* \"TokenVesting.sol\":221:2124  contract TokenVesting {... */\ntag_8:\n  dataSize(sub_0)\n  dup1\n  dataOffset(sub_0)\n  0x00\n  codecopy\n  0x00\n  return\nstop\n\nsub_0: assembly {\n        /* \"TokenVesting.sol\":221:2124  contract TokenVesting {... */\n      mstore(0x40, 0x80)\n      callvalue\n      dup1\n      iszero\n      tag_1\n      jumpi\n      revert(0x00, 0x00)\n    tag_1:\n      pop\n      jumpi(tag_2, lt(calldatasize, 0x04))\n      shr(0xe0, calldataload(0x00))\n      dup1\n      0x4e71d92d\n      gt\n      tag_11\n      jumpi\n      dup1\n      0x4e71d92d\n      eq\n      tag_7\n      jumpi\n      dup1\n      0x78e97925\n      eq\n      tag_8\n      jumpi\n      dup1\n      0xa556f846\n      eq\n      tag_9\n      jumpi\n      dup1\n      0xb3daa652\n      eq\n      tag_10\n      jumpi\n      jump(tag_2)\n    tag_11:\n      dup1\n      0x1a39d8ef\n      eq\n      tag_3\n      jumpi\n      dup1\n      0x38af3eed\n      eq\n      tag_4\n      jumpi\n      dup1\n      0x45d30a17\n      eq\n      tag_5\n      jumpi\n      dup1\n      0x4cfc4d30\n      eq\n      tag_6\n      jumpi\n    tag_2:\n      revert(0x00, 0x00)\n        /* \"TokenVesting.sol\":317:343  uint256 public totalAmount */\n    tag_3:\n      tag_12\n      tag_13\n      jump\t// in\n    tag_12:\n      mload(0x40)\n      tag_14\n      swap2\n      swap1\n      tag_15\n      jump\t// in\n    tag_14:\n      mload(0x40)\n      dup1\n      swap2\n      sub\n      swap1\n      return\n        /* \"TokenVesting.sol\":250:276  address public beneficiary */\n    tag_4:\n      tag_16\n      tag_17\n      jump\t// in\n    tag_16:\n      mload(0x40)\n      tag_18\n      swap2\n      swap1\n      tag_19\n      jump\t// in\n    tag_18:\n      mload(0x40)\n      dup1\n      swap2\n      sub\n      swap1\n      return\n        /* \"TokenVesting.sol\":350:379  uint256 public releasedAmount */\n    tag_5:\n      tag_20\n      tag_21\n      jump\t// in\n    tag_20:\n      mload(0x40)\n      tag_22\n      swap2\n      swap1\n      tag_15\n      jump\t// in\n    tag_22:\n      mload(0x40)\n      dup1\n      swap2\n      sub\n      swap1\n      return\n        /* \"TokenVesting.sol\":525:576  uint256 public constant VESTING_DURATION = 720 days */\n    tag_6:\n      tag_23\n      tag_24\n      jump\t// in\n    tag_23:\n      mload(0x40)\n      tag_25\n      swap2\n      swap1\n      tag_15\n      jump\t// in\n    tag_25:\n      mload(0x40)\n      dup1\n      swap2\n      sub\n      swap1\n      return\n        /* \"TokenVesting.sol\":1745:2121  function claim() public {... */\n    tag_7:\n      tag_26\n      tag_27\n      jump\t// in\n    tag_26:\n      stop\n        /* \"TokenVesting.sol\":286:310  uint256 public startTime */\n    tag_8:\n      tag_28\n      tag_29\n      jump\t// in\n    tag_28:\n      mload(0x40)\n      tag_30\n      swap2\n      swap1\n      tag_15\n      jump\t// in\n    tag_30:\n      mload(0x40)\n      dup1\n      swap2\n      sub\n      swap1\n      return\n        /* \"TokenVesting.sol\":1025:1658  function claimableAmount() public view returns (uint256) {... */\n    tag_9:\n      tag_31\n      tag_32\n      jump\t// in\n    tag_31:\n      mload(0x40)\n      tag_33\n      swap2\n      swap1\n      tag_15\n      jump\t// in\n    tag_33:\n      mload(0x40)\n      dup1\n      swap2\n      sub\n      swap1\n      return\n        /* \"TokenVesting.sol\":456:506  uint256 public constant CLIFF_DURATION = 180  days */\n    tag_10:\n      tag_34\n      tag_35\n      jump\t// in\n    tag_34:\n      mload(0x40)\n      tag_36\n      swap2\n      swap1\n      tag_15\n      jump\t// in\n    tag_36:\n      mload(0x40)\n      dup1\n      swap2\n      sub\n      swap1\n      return\n        /* \"TokenVesting.sol\":317:343  uint256 public totalAmount */\n    tag_13:\n      sload(0x02)\n      dup2\n      jump\t// out\n        /* \"TokenVesting.sol\":250:276  address public beneficiary */\n    tag_17:\n      0x00\n      0x00\n      swap1\n      sload\n      swap1\n      0x0100\n      exp\n      swap1\n      div\n      0xffffffffffffffffffffffffffffffffffffffff\n      and\n      dup2\n      jump\t// out\n        /* \"TokenVesting.sol\":350:379  uint256 public releasedAmount */\n    tag_21:\n      sload(0x03)\n      dup2\n      jump\t// out\n        /* \"TokenVesting.sol\":525:576  uint256 public constant VESTING_DURATION = 720 days */\n    tag_24:\n        /* \"TokenVesting.sol\":568:576  720 days */\n      0x03b53800\n        /* \"TokenVesting.sol\":525:576  uint256 public constant VESTING_DURATION = 720 days */\n      dup2\n      jump\t// out\n        /* \"TokenVesting.sol\":1745:2121  function claim() public {... */\n    tag_27:\n        /* \"TokenVesting.sol\":1802:1813  beneficiary */\n      0x00\n      0x00\n      swap1\n      sload\n      swap1\n      0x0100\n      exp\n      swap1\n      div\n      0xffffffffffffffffffffffffffffffffffffffff\n      and\n        /* \"TokenVesting.sol\":1788:1813  msg.sender == beneficiary */\n      0xffffffffffffffffffffffffffffffffffffffff\n      and\n        /* \"TokenVesting.sol\":1788:1798  msg.sender */\n      caller\n        /* \"TokenVesting.sol\":1788:1813  msg.sender == beneficiary */\n      0xffffffffffffffffffffffffffffffffffffffff\n      and\n      eq\n        /* \"TokenVesting.sol\":1780:1844  require(msg.sender == beneficiary, \"Only beneficiary can claim\") */\n      tag_38\n      jumpi\n      mload(0x40)\n      0x08c379a000000000000000000000000000000000000000000000000000000000\n      dup2\n      mstore\n      0x04\n      add\n      tag_39\n      swap1\n      tag_40\n      jump\t// in\n    tag_39:\n      mload(0x40)\n      dup1\n      swap2\n      sub\n      swap1\n      revert\n    tag_38:\n        /* \"TokenVesting.sol\":1865:1879  uint256 amount */\n      0x00\n        /* \"TokenVesting.sol\":1882:1899  claimableAmount() */\n      tag_41\n        /* \"TokenVesting.sol\":1882:1897  claimableAmount */\n      tag_32\n        /* \"TokenVesting.sol\":1882:1899  claimableAmount() */\n      jump\t// in\n    tag_41:\n        /* \"TokenVesting.sol\":1865:1899  uint256 amount = claimableAmount() */\n      swap1\n      pop\n        /* \"TokenVesting.sol\":1927:1928  0 */\n      0x00\n        /* \"TokenVesting.sol\":1918:1924  amount */\n      dup2\n        /* \"TokenVesting.sol\":1918:1928  amount > 0 */\n      gt\n        /* \"TokenVesting.sol\":1910:1965  require(amount > 0, \"No funds available for claim yet\") */\n      tag_42\n      jumpi\n      mload(0x40)\n      0x08c379a000000000000000000000000000000000000000000000000000000000\n      dup2\n      mstore\n      0x04\n      add\n      tag_43\n      swap1\n      tag_44\n      jump\t// in\n    tag_43:\n      mload(0x40)\n      dup1\n      swap2\n      sub\n      swap1\n      revert\n    tag_42:\n        /* \"TokenVesting.sol\":1996:2002  amount */\n      dup1\n        /* \"TokenVesting.sol\":1978:1992  releasedAmount */\n      0x03\n      0x00\n        /* \"TokenVesting.sol\":1978:2002  releasedAmount += amount */\n      dup3\n      dup3\n      sload\n      tag_45\n      swap2\n      swap1\n      tag_46\n      jump\t// in\n    tag_45:\n      swap3\n      pop\n      pop\n      dup2\n      swap1\n      sstore\n      pop\n        /* \"TokenVesting.sol\":2014:2026  bool success */\n      0x00\n        /* \"TokenVesting.sol\":2032:2043  beneficiary */\n      0x00\n      0x00\n      swap1\n      sload\n      swap1\n      0x0100\n      exp\n      swap1\n      div\n      0xffffffffffffffffffffffffffffffffffffffff\n      and\n        /* \"TokenVesting.sol\":2032:2048  beneficiary.call */\n      0xffffffffffffffffffffffffffffffffffffffff\n      and\n        /* \"TokenVesting.sol\":2056:2062  amount */\n      dup3\n        /* \"TokenVesting.sol\":2032:2067  beneficiary.call{value: amount}(\"\") */\n      mload(0x40)\n      tag_47\n      swap1\n      tag_48\n      jump\t// in\n    tag_47:\n      0x00\n      mload(0x40)\n      dup1\n      dup4\n      sub\n      dup2\n      dup6\n      dup8\n      gas\n      call\n      swap3\n      pop\n      pop\n      pop\n      returndatasize\n      dup1\n      0x00\n      dup2\n      eq\n      tag_51\n      jumpi\n      mload(0x40)\n      swap2\n      pop\n      and(add(returndatasize, 0x3f), not(0x1f))\n      dup3\n      add\n      0x40\n      mstore\n      returndatasize\n      dup3\n      mstore\n      returndatasize\n      0x00\n      0x20\n      dup5\n      add\n      returndatacopy\n      jump(tag_50)\n    tag_51:\n      0x60\n      swap2\n      pop\n    tag_50:\n      pop\n        /* \"TokenVesting.sol\":2013:2067  (bool success, ) = beneficiary.call{value: amount}(\"\") */\n      pop\n      swap1\n      pop\n        /* \"TokenVesting.sol\":2086:2093  success */\n      dup1\n        /* \"TokenVesting.sol\":2078:2113  require(success, \"Transfer failed\") */\n      tag_52\n      jumpi\n      mload(0x40)\n      0x08c379a000000000000000000000000000000000000000000000000000000000\n      dup2\n      mstore\n      0x04\n      add\n      tag_53\n      swap1\n      tag_54\n      jump\t// in\n    tag_53:\n      mload(0x40)\n      dup1\n      swap2\n      sub\n      swap1\n      revert\n    tag_52:\n        /* \"TokenVesting.sol\":1769:2121  {... */\n      pop\n      pop\n        /* \"TokenVesting.sol\":1745:2121  function claim() public {... */\n      jump\t// out\n        /* \"TokenVesting.sol\":286:310  uint256 public startTime */\n    tag_29:\n      sload(0x01)\n      dup2\n      jump\t// out\n        /* \"TokenVesting.sol\":1025:1658  function claimableAmount() public view returns (uint256) {... */\n    tag_32:\n        /* \"TokenVesting.sol\":1073:1080  uint256 */\n      0x00\n        /* \"TokenVesting.sol\":497:506  180  days */\n      0xed4e00\n        /* \"TokenVesting.sol\":1194:1203  startTime */\n      sload(0x01)\n        /* \"TokenVesting.sol\":1194:1220  startTime + CLIFF_DURATION */\n      tag_56\n      swap2\n      swap1\n      tag_46\n      jump\t// in\n    tag_56:\n        /* \"TokenVesting.sol\":1176:1191  block.timestamp */\n      timestamp\n        /* \"TokenVesting.sol\":1176:1220  block.timestamp < startTime + CLIFF_DURATION */\n      lt\n        /* \"TokenVesting.sol\":1172:1257  if (block.timestamp < startTime + CLIFF_DURATION) {... */\n      iszero\n      tag_57\n      jumpi\n        /* \"TokenVesting.sol\":1244:1245  0 */\n      0x00\n        /* \"TokenVesting.sol\":1237:1245  return 0 */\n      swap1\n      pop\n      jump(tag_55)\n        /* \"TokenVesting.sol\":1172:1257  if (block.timestamp < startTime + CLIFF_DURATION) {... */\n    tag_57:\n        /* \"TokenVesting.sol\":568:576  720 days */\n      0x03b53800\n        /* \"TokenVesting.sol\":1344:1353  startTime */\n      sload(0x01)\n        /* \"TokenVesting.sol\":1344:1372  startTime + VESTING_DURATION */\n      tag_58\n      swap2\n      swap1\n      tag_46\n      jump\t// in\n    tag_58:\n        /* \"TokenVesting.sol\":1325:1340  block.timestamp */\n      timestamp\n        /* \"TokenVesting.sol\":1325:1372  block.timestamp >= startTime + VESTING_DURATION */\n      lt\n        /* \"TokenVesting.sol\":1321:1651  if (block.timestamp >= startTime + VESTING_DURATION) {... */\n      tag_59\n      jumpi\n        /* \"TokenVesting.sol\":1410:1424  releasedAmount */\n      sload(0x03)\n        /* \"TokenVesting.sol\":1396:1407  totalAmount */\n      sload(0x02)\n        /* \"TokenVesting.sol\":1396:1424  totalAmount - releasedAmount */\n      tag_60\n      swap2\n      swap1\n      tag_61\n      jump\t// in\n    tag_60:\n        /* \"TokenVesting.sol\":1389:1424  return totalAmount - releasedAmount */\n      swap1\n      pop\n      jump(tag_55)\n        /* \"TokenVesting.sol\":1321:1651  if (block.timestamp >= startTime + VESTING_DURATION) {... */\n    tag_59:\n        /* \"TokenVesting.sol\":1457:1475  uint256 timePassed */\n      0x00\n        /* \"TokenVesting.sol\":1496:1505  startTime */\n      sload(0x01)\n        /* \"TokenVesting.sol\":1478:1493  block.timestamp */\n      timestamp\n        /* \"TokenVesting.sol\":1478:1505  block.timestamp - startTime */\n      tag_63\n      swap2\n      swap1\n      tag_61\n      jump\t// in\n    tag_63:\n        /* \"TokenVesting.sol\":1457:1505  uint256 timePassed = block.timestamp - startTime */\n      swap1\n      pop\n        /* \"TokenVesting.sol\":1520:1540  uint256 vestedAmount */\n      0x00\n        /* \"TokenVesting.sol\":568:576  720 days */\n      0x03b53800\n        /* \"TokenVesting.sol\":1558:1568  timePassed */\n      dup3\n        /* \"TokenVesting.sol\":1544:1555  totalAmount */\n      sload(0x02)\n        /* \"TokenVesting.sol\":1544:1568  totalAmount * timePassed */\n      tag_64\n      swap2\n      swap1\n      tag_65\n      jump\t// in\n    tag_64:\n        /* \"TokenVesting.sol\":1543:1588  (totalAmount * timePassed) / VESTING_DURATION */\n      tag_66\n      swap2\n      swap1\n      tag_67\n      jump\t// in\n    tag_66:\n        /* \"TokenVesting.sol\":1520:1588  uint256 vestedAmount = (totalAmount * timePassed) / VESTING_DURATION */\n      swap1\n      pop\n        /* \"TokenVesting.sol\":1625:1639  releasedAmount */\n      sload(0x03)\n        /* \"TokenVesting.sol\":1610:1622  vestedAmount */\n      dup2\n        /* \"TokenVesting.sol\":1610:1639  vestedAmount - releasedAmount */\n      tag_68\n      swap2\n      swap1\n      tag_61\n      jump\t// in\n    tag_68:\n        /* \"TokenVesting.sol\":1603:1639  return vestedAmount - releasedAmount */\n      swap3\n      pop\n      pop\n      pop\n        /* \"TokenVesting.sol\":1025:1658  function claimableAmount() public view returns (uint256) {... */\n    tag_55:\n      swap1\n      jump\t// out\n        /* \"TokenVesting.sol\":456:506  uint256 public constant CLIFF_DURATION = 180  days */\n    tag_35:\n        /* \"TokenVesting.sol\":497:506  180  days */\n      0xed4e00\n        /* \"TokenVesting.sol\":456:506  uint256 public constant CLIFF_DURATION = 180  days */\n      dup2\n      jump\t// out\n        /* \"#utility.yul\":7:84   */\n    tag_69:\n        /* \"#utility.yul\":44:51   */\n      0x00\n        /* \"#utility.yul\":73:78   */\n      dup2\n        /* \"#utility.yul\":62:78   */\n      swap1\n      pop\n        /* \"#utility.yul\":7:84   */\n      swap2\n      swap1\n      pop\n      jump\t// out\n        /* \"#utility.yul\":90:208   */\n    tag_70:\n        /* \"#utility.yul\":177:201   */\n      tag_89\n        /* \"#utility.yul\":195:200   */\n      dup2\n        /* \"#utility.yul\":177:201   */\n      tag_69\n      jump\t// in\n    tag_89:\n        /* \"#utility.yul\":172:175   */\n      dup3\n        /* \"#utility.yul\":165:202   */\n      mstore\n        /* \"#utility.yul\":90:208   */\n      pop\n      pop\n      jump\t// out\n        /* \"#utility.yul\":214:436   */\n    tag_15:\n        /* \"#utility.yul\":307:311   */\n      0x00\n        /* \"#utility.yul\":345:347   */\n      0x20\n        /* \"#utility.yul\":334:343   */\n      dup3\n        /* \"#utility.yul\":330:348   */\n      add\n        /* \"#utility.yul\":322:348   */\n      swap1\n      pop\n        /* \"#utility.yul\":358:429   */\n      tag_91\n        /* \"#utility.yul\":426:427   */\n      0x00\n        /* \"#utility.yul\":415:424   */\n      dup4\n        /* \"#utility.yul\":411:428   */\n      add\n        /* \"#utility.yul\":402:408   */\n      dup5\n        /* \"#utility.yul\":358:429   */\n      tag_70\n      jump\t// in\n    tag_91:\n        /* \"#utility.yul\":214:436   */\n      swap3\n      swap2\n      pop\n      pop\n      jump\t// out\n        /* \"#utility.yul\":442:568   */\n    tag_71:\n        /* \"#utility.yul\":479:486   */\n      0x00\n        /* \"#utility.yul\":519:561   */\n      0xffffffffffffffffffffffffffffffffffffffff\n        /* \"#utility.yul\":512:517   */\n      dup3\n        /* \"#utility.yul\":508:562   */\n      and\n        /* \"#utility.yul\":497:562   */\n      swap1\n      pop\n        /* \"#utility.yul\":442:568   */\n      swap2\n      swap1\n      pop\n      jump\t// out\n        /* \"#utility.yul\":574:670   */\n    tag_72:\n        /* \"#utility.yul\":611:618   */\n      0x00\n        /* \"#utility.yul\":640:664   */\n      tag_94\n        /* \"#utility.yul\":658:663   */\n      dup3\n        /* \"#utility.yul\":640:664   */\n      tag_71\n      jump\t// in\n    tag_94:\n        /* \"#utility.yul\":629:664   */\n      swap1\n      pop\n        /* \"#utility.yul\":574:670   */\n      swap2\n      swap1\n      pop\n      jump\t// out\n        /* \"#utility.yul\":676:794   */\n    tag_73:\n        /* \"#utility.yul\":763:787   */\n      tag_96\n        /* \"#utility.yul\":781:786   */\n      dup2\n        /* \"#utility.yul\":763:787   */\n      tag_72\n      jump\t// in\n    tag_96:\n        /* \"#utility.yul\":758:761   */\n      dup3\n        /* \"#utility.yul\":751:788   */\n      mstore\n        /* \"#utility.yul\":676:794   */\n      pop\n      pop\n      jump\t// out\n        /* \"#utility.yul\":800:1022   */\n    tag_19:\n        /* \"#utility.yul\":893:897   */\n      0x00\n        /* \"#utility.yul\":931:933   */\n      0x20\n        /* \"#utility.yul\":920:929   */\n      dup3\n        /* \"#utility.yul\":916:934   */\n      add\n        /* \"#utility.yul\":908:934   */\n      swap1\n      pop\n        /* \"#utility.yul\":944:1015   */\n      tag_98\n        /* \"#utility.yul\":1012:1013   */\n      0x00\n        /* \"#utility.yul\":1001:1010   */\n      dup4\n        /* \"#utility.yul\":997:1014   */\n      add\n        /* \"#utility.yul\":988:994   */\n      dup5\n        /* \"#utility.yul\":944:1015   */\n      tag_73\n      jump\t// in\n    tag_98:\n        /* \"#utility.yul\":800:1022   */\n      swap3\n      swap2\n      pop\n      pop\n      jump\t// out\n        /* \"#utility.yul\":1028:1197   */\n    tag_74:\n        /* \"#utility.yul\":1112:1123   */\n      0x00\n        /* \"#utility.yul\":1146:1152   */\n      dup3\n        /* \"#utility.yul\":1141:1144   */\n      dup3\n        /* \"#utility.yul\":1134:1153   */\n      mstore\n        /* \"#utility.yul\":1186:1190   */\n      0x20\n        /* \"#utility.yul\":1181:1184   */\n      dup3\n        /* \"#utility.yul\":1177:1191   */\n      add\n        /* \"#utility.yul\":1162:1191   */\n      swap1\n      pop\n        /* \"#utility.yul\":1028:1197   */\n      swap3\n      swap2\n      pop\n      pop\n      jump\t// out\n        /* \"#utility.yul\":1203:1379   */\n    tag_75:\n        /* \"#utility.yul\":1343:1371   */\n      0x4f6e6c792062656e65666963696172792063616e20636c61696d000000000000\n        /* \"#utility.yul\":1339:1340   */\n      0x00\n        /* \"#utility.yul\":1331:1337   */\n      dup3\n        /* \"#utility.yul\":1327:1341   */\n      add\n        /* \"#utility.yul\":1320:1372   */\n      mstore\n        /* \"#utility.yul\":1203:1379   */\n      pop\n      jump\t// out\n        /* \"#utility.yul\":1385:1751   */\n    tag_76:\n        /* \"#utility.yul\":1527:1530   */\n      0x00\n        /* \"#utility.yul\":1548:1615   */\n      tag_102\n        /* \"#utility.yul\":1612:1614   */\n      0x1a\n        /* \"#utility.yul\":1607:1610   */\n      dup4\n        /* \"#utility.yul\":1548:1615   */\n      tag_74\n      jump\t// in\n    tag_102:\n        /* \"#utility.yul\":1541:1615   */\n      swap2\n      pop\n        /* \"#utility.yul\":1624:1717   */\n      tag_103\n        /* \"#utility.yul\":1713:1716   */\n      dup3\n        /* \"#utility.yul\":1624:1717   */\n      tag_75\n      jump\t// in\n    tag_103:\n        /* \"#utility.yul\":1742:1744   */\n      0x20\n        /* \"#utility.yul\":1737:1740   */\n      dup3\n        /* \"#utility.yul\":1733:1745   */\n      add\n        /* \"#utility.yul\":1726:1745   */\n      swap1\n      pop\n        /* \"#utility.yul\":1385:1751   */\n      swap2\n      swap1\n      pop\n      jump\t// out\n        /* \"#utility.yul\":1757:2176   */\n    tag_40:\n        /* \"#utility.yul\":1923:1927   */\n      0x00\n        /* \"#utility.yul\":1961:1963   */\n      0x20\n        /* \"#utility.yul\":1950:1959   */\n      dup3\n        /* \"#utility.yul\":1946:1964   */\n      add\n        /* \"#utility.yul\":1938:1964   */\n      swap1\n      pop\n        /* \"#utility.yul\":2010:2019   */\n      dup2\n        /* \"#utility.yul\":2004:2008   */\n      dup2\n        /* \"#utility.yul\":2000:2020   */\n      sub\n        /* \"#utility.yul\":1996:1997   */\n      0x00\n        /* \"#utility.yul\":1985:1994   */\n      dup4\n        /* \"#utility.yul\":1981:1998   */\n      add\n        /* \"#utility.yul\":1974:2021   */\n      mstore\n        /* \"#utility.yul\":2038:2169   */\n      tag_105\n        /* \"#utility.yul\":2164:2168   */\n      dup2\n        /* \"#utility.yul\":2038:2169   */\n      tag_76\n      jump\t// in\n    tag_105:\n        /* \"#utility.yul\":2030:2169   */\n      swap1\n      pop\n        /* \"#utility.yul\":1757:2176   */\n      swap2\n      swap1\n      pop\n      jump\t// out\n        /* \"#utility.yul\":2182:2364   */\n    tag_77:\n        /* \"#utility.yul\":2322:2356   */\n      0x4e6f2066756e647320617661696c61626c6520666f7220636c61696d20796574\n        /* \"#utility.yul\":2318:2319   */\n      0x00\n        /* \"#utility.yul\":2310:2316   */\n      dup3\n        /* \"#utility.yul\":2306:2320   */\n      add\n        /* \"#utility.yul\":2299:2357   */\n      mstore\n        /* \"#utility.yul\":2182:2364   */\n      pop\n      jump\t// out\n        /* \"#utility.yul\":2370:2736   */\n    tag_78:\n        /* \"#utility.yul\":2512:2515   */\n      0x00\n        /* \"#utility.yul\":2533:2600   */\n      tag_108\n        /* \"#utility.yul\":2597:2599   */\n      0x20\n        /* \"#utility.yul\":2592:2595   */\n      dup4\n        /* \"#utility.yul\":2533:2600   */\n      tag_74\n      jump\t// in\n    tag_108:\n        /* \"#utility.yul\":2526:2600   */\n      swap2\n      pop\n        /* \"#utility.yul\":2609:2702   */\n      tag_109\n        /* \"#utility.yul\":2698:2701   */\n      dup3\n        /* \"#utility.yul\":2609:2702   */\n      tag_77\n      jump\t// in\n    tag_109:\n        /* \"#utility.yul\":2727:2729   */\n      0x20\n        /* \"#utility.yul\":2722:2725   */\n      dup3\n        /* \"#utility.yul\":2718:2730   */\n      add\n        /* \"#utility.yul\":2711:2730   */\n      swap1\n      pop\n        /* \"#utility.yul\":2370:2736   */\n      swap2\n      swap1\n      pop\n      jump\t// out\n        /* \"#utility.yul\":2742:3161   */\n    tag_44:\n        /* \"#utility.yul\":2908:2912   */\n      0x00\n        /* \"#utility.yul\":2946:2948   */\n      0x20\n        /* \"#utility.yul\":2935:2944   */\n      dup3\n        /* \"#utility.yul\":2931:2949   */\n      add\n        /* \"#utility.yul\":2923:2949   */\n      swap1\n      pop\n        /* \"#utility.yul\":2995:3004   */\n      dup2\n        /* \"#utility.yul\":2989:2993   */\n      dup2\n        /* \"#utility.yul\":2985:3005   */\n      sub\n        /* \"#utility.yul\":2981:2982   */\n      0x00\n        /* \"#utility.yul\":2970:2979   */\n      dup4\n        /* \"#utility.yul\":2966:2983   */\n      add\n        /* \"#utility.yul\":2959:3006   */\n      mstore\n        /* \"#utility.yul\":3023:3154   */\n      tag_111\n        /* \"#utility.yul\":3149:3153   */\n      dup2\n        /* \"#utility.yul\":3023:3154   */\n      tag_78\n      jump\t// in\n    tag_111:\n        /* \"#utility.yul\":3015:3154   */\n      swap1\n      pop\n        /* \"#utility.yul\":2742:3161   */\n      swap2\n      swap1\n      pop\n      jump\t// out\n        /* \"#utility.yul\":3167:3347   */\n    tag_79:\n        /* \"#utility.yul\":3215:3292   */\n      0x4e487b7100000000000000000000000000000000000000000000000000000000\n        /* \"#utility.yul\":3212:3213   */\n      0x00\n        /* \"#utility.yul\":3205:3293   */\n      mstore\n        /* \"#utility.yul\":3312:3316   */\n      0x11\n        /* \"#utility.yul\":3309:3310   */\n      0x04\n        /* \"#utility.yul\":3302:3317   */\n      mstore\n        /* \"#utility.yul\":3336:3340   */\n      0x24\n        /* \"#utility.yul\":3333:3334   */\n      0x00\n        /* \"#utility.yul\":3326:3341   */\n      revert\n        /* \"#utility.yul\":3353:3544   */\n    tag_46:\n        /* \"#utility.yul\":3393:3396   */\n      0x00\n        /* \"#utility.yul\":3412:3432   */\n      tag_114\n        /* \"#utility.yul\":3430:3431   */\n      dup3\n        /* \"#utility.yul\":3412:3432   */\n      tag_69\n      jump\t// in\n    tag_114:\n        /* \"#utility.yul\":3407:3432   */\n      swap2\n      pop\n        /* \"#utility.yul\":3446:3466   */\n      tag_115\n        /* \"#utility.yul\":3464:3465   */\n      dup4\n        /* \"#utility.yul\":3446:3466   */\n      tag_69\n      jump\t// in\n    tag_115:\n        /* \"#utility.yul\":3441:3466   */\n      swap3\n      pop\n        /* \"#utility.yul\":3489:3490   */\n      dup3\n        /* \"#utility.yul\":3486:3487   */\n      dup3\n        /* \"#utility.yul\":3482:3491   */\n      add\n        /* \"#utility.yul\":3475:3491   */\n      swap1\n      pop\n        /* \"#utility.yul\":3510:3513   */\n      dup1\n        /* \"#utility.yul\":3507:3508   */\n      dup3\n        /* \"#utility.yul\":3504:3514   */\n      gt\n        /* \"#utility.yul\":3501:3537   */\n      iszero\n      tag_116\n      jumpi\n        /* \"#utility.yul\":3517:3535   */\n      tag_117\n      tag_79\n      jump\t// in\n    tag_117:\n        /* \"#utility.yul\":3501:3537   */\n    tag_116:\n        /* \"#utility.yul\":3353:3544   */\n      swap3\n      swap2\n      pop\n      pop\n      jump\t// out\n        /* \"#utility.yul\":3550:3697   */\n    tag_80:\n        /* \"#utility.yul\":3651:3662   */\n      0x00\n        /* \"#utility.yul\":3688:3691   */\n      dup2\n        /* \"#utility.yul\":3673:3691   */\n      swap1\n      pop\n        /* \"#utility.yul\":3550:3697   */\n      swap3\n      swap2\n      pop\n      pop\n      jump\t// out\n        /* \"#utility.yul\":3703:3817   */\n    tag_81:\n      pop\n      jump\t// out\n        /* \"#utility.yul\":3823:4221   */\n    tag_82:\n        /* \"#utility.yul\":3982:3985   */\n      0x00\n        /* \"#utility.yul\":4003:4086   */\n      tag_121\n        /* \"#utility.yul\":4084:4085   */\n      0x00\n        /* \"#utility.yul\":4079:4082   */\n      dup4\n        /* \"#utility.yul\":4003:4086   */\n      tag_80\n      jump\t// in\n    tag_121:\n        /* \"#utility.yul\":3996:4086   */\n      swap2\n      pop\n        /* \"#utility.yul\":4095:4188   */\n      tag_122\n        /* \"#utility.yul\":4184:4187   */\n      dup3\n        /* \"#utility.yul\":4095:4188   */\n      tag_81\n      jump\t// in\n    tag_122:\n        /* \"#utility.yul\":4213:4214   */\n      0x00\n        /* \"#utility.yul\":4208:4211   */\n      dup3\n        /* \"#utility.yul\":4204:4215   */\n      add\n        /* \"#utility.yul\":4197:4215   */\n      swap1\n      pop\n        /* \"#utility.yul\":3823:4221   */\n      swap2\n      swap1\n      pop\n      jump\t// out\n        /* \"#utility.yul\":4227:4606   */\n    tag_48:\n        /* \"#utility.yul\":4411:4414   */\n      0x00\n        /* \"#utility.yul\":4433:4580   */\n      tag_124\n        /* \"#utility.yul\":4576:4579   */\n      dup3\n        /* \"#utility.yul\":4433:4580   */\n      tag_82\n      jump\t// in\n    tag_124:\n        /* \"#utility.yul\":4426:4580   */\n      swap2\n      pop\n        /* \"#utility.yul\":4597:4600   */\n      dup2\n        /* \"#utility.yul\":4590:4600   */\n      swap1\n      pop\n        /* \"#utility.yul\":4227:4606   */\n      swap2\n      swap1\n      pop\n      jump\t// out\n        /* \"#utility.yul\":4612:4777   */\n    tag_83:\n        /* \"#utility.yul\":4752:4769   */\n      0x5472616e73666572206661696c65640000000000000000000000000000000000\n        /* \"#utility.yul\":4748:4749   */\n      0x00\n        /* \"#utility.yul\":4740:4746   */\n      dup3\n        /* \"#utility.yul\":4736:4750   */\n      add\n        /* \"#utility.yul\":4729:4770   */\n      mstore\n        /* \"#utility.yul\":4612:4777   */\n      pop\n      jump\t// out\n        /* \"#utility.yul\":4783:5149   */\n    tag_84:\n        /* \"#utility.yul\":4925:4928   */\n      0x00\n        /* \"#utility.yul\":4946:5013   */\n      tag_127\n        /* \"#utility.yul\":5010:5012   */\n      0x0f\n        /* \"#utility.yul\":5005:5008   */\n      dup4\n        /* \"#utility.yul\":4946:5013   */\n      tag_74\n      jump\t// in\n    tag_127:\n        /* \"#utility.yul\":4939:5013   */\n      swap2\n      pop\n        /* \"#utility.yul\":5022:5115   */\n      tag_128\n        /* \"#utility.yul\":5111:5114   */\n      dup3\n        /* \"#utility.yul\":5022:5115   */\n      tag_83\n      jump\t// in\n    tag_128:\n        /* \"#utility.yul\":5140:5142   */\n      0x20\n        /* \"#utility.yul\":5135:5138   */\n      dup3\n        /* \"#utility.yul\":5131:5143   */\n      add\n        /* \"#utility.yul\":5124:5143   */\n      swap1\n      pop\n        /* \"#utility.yul\":4783:5149   */\n      swap2\n      swap1\n      pop\n      jump\t// out\n        /* \"#utility.yul\":5155:5574   */\n    tag_54:\n        /* \"#utility.yul\":5321:5325   */\n      0x00\n        /* \"#utility.yul\":5359:5361   */\n      0x20\n        /* \"#utility.yul\":5348:5357   */\n      dup3\n        /* \"#utility.yul\":5344:5362   */\n      add\n        /* \"#utility.yul\":5336:5362   */\n      swap1\n      pop\n        /* \"#utility.yul\":5408:5417   */\n      dup2\n        /* \"#utility.yul\":5402:5406   */\n      dup2\n        /* \"#utility.yul\":5398:5418   */\n      sub\n        /* \"#utility.yul\":5394:5395   */\n      0x00\n        /* \"#utility.yul\":5383:5392   */\n      dup4\n        /* \"#utility.yul\":5379:5396   */\n      add\n        /* \"#utility.yul\":5372:5419   */\n      mstore\n        /* \"#utility.yul\":5436:5567   */\n      tag_130\n        /* \"#utility.yul\":5562:5566   */\n      dup2\n        /* \"#utility.yul\":5436:5567   */\n      tag_84\n      jump\t// in\n    tag_130:\n        /* \"#utility.yul\":5428:5567   */\n      swap1\n      pop\n        /* \"#utility.yul\":5155:5574   */\n      swap2\n      swap1\n      pop\n      jump\t// out\n        /* \"#utility.yul\":5580:5774   */\n    tag_61:\n        /* \"#utility.yul\":5620:5624   */\n      0x00\n        /* \"#utility.yul\":5640:5660   */\n      tag_132\n        /* \"#utility.yul\":5658:5659   */\n      dup3\n        /* \"#utility.yul\":5640:5660   */\n      tag_69\n      jump\t// in\n    tag_132:\n        /* \"#utility.yul\":5635:5660   */\n      swap2\n      pop\n        /* \"#utility.yul\":5674:5694   */\n      tag_133\n        /* \"#utility.yul\":5692:5693   */\n      dup4\n        /* \"#utility.yul\":5674:5694   */\n      tag_69\n      jump\t// in\n    tag_133:\n        /* \"#utility.yul\":5669:5694   */\n      swap3\n      pop\n        /* \"#utility.yul\":5718:5719   */\n      dup3\n        /* \"#utility.yul\":5715:5716   */\n      dup3\n        /* \"#utility.yul\":5711:5720   */\n      sub\n        /* \"#utility.yul\":5703:5720   */\n      swap1\n      pop\n        /* \"#utility.yul\":5742:5743   */\n      dup2\n        /* \"#utility.yul\":5736:5740   */\n      dup2\n        /* \"#utility.yul\":5733:5744   */\n      gt\n        /* \"#utility.yul\":5730:5767   */\n      iszero\n      tag_134\n      jumpi\n        /* \"#utility.yul\":5747:5765   */\n      tag_135\n      tag_79\n      jump\t// in\n    tag_135:\n        /* \"#utility.yul\":5730:5767   */\n    tag_134:\n        /* \"#utility.yul\":5580:5774   */\n      swap3\n      swap2\n      pop\n      pop\n      jump\t// out\n        /* \"#utility.yul\":5780:6190   */\n    tag_65:\n        /* \"#utility.yul\":5820:5827   */\n      0x00\n        /* \"#utility.yul\":5843:5863   */\n      tag_137\n        /* \"#utility.yul\":5861:5862   */\n      dup3\n        /* \"#utility.yul\":5843:5863   */\n      tag_69\n      jump\t// in\n    tag_137:\n        /* \"#utility.yul\":5838:5863   */\n      swap2\n      pop\n        /* \"#utility.yul\":5877:5897   */\n      tag_138\n        /* \"#utility.yul\":5895:5896   */\n      dup4\n        /* \"#utility.yul\":5877:5897   */\n      tag_69\n      jump\t// in\n    tag_138:\n        /* \"#utility.yul\":5872:5897   */\n      swap3\n      pop\n        /* \"#utility.yul\":5932:5933   */\n      dup3\n        /* \"#utility.yul\":5929:5930   */\n      dup3\n        /* \"#utility.yul\":5925:5934   */\n      mul\n        /* \"#utility.yul\":5954:5984   */\n      tag_139\n        /* \"#utility.yul\":5972:5983   */\n      dup2\n        /* \"#utility.yul\":5954:5984   */\n      tag_69\n      jump\t// in\n    tag_139:\n        /* \"#utility.yul\":5943:5984   */\n      swap2\n      pop\n        /* \"#utility.yul\":6133:6134   */\n      dup3\n        /* \"#utility.yul\":6124:6131   */\n      dup3\n        /* \"#utility.yul\":6120:6135   */\n      div\n        /* \"#utility.yul\":6117:6118   */\n      dup5\n        /* \"#utility.yul\":6114:6136   */\n      eq\n        /* \"#utility.yul\":6094:6095   */\n      dup4\n        /* \"#utility.yul\":6087:6096   */\n      iszero\n        /* \"#utility.yul\":6067:6150   */\n      or\n        /* \"#utility.yul\":6044:6183   */\n      tag_140\n      jumpi\n        /* \"#utility.yul\":6163:6181   */\n      tag_141\n      tag_79\n      jump\t// in\n    tag_141:\n        /* \"#utility.yul\":6044:6183   */\n    tag_140:\n        /* \"#utility.yul\":5828:6190   */\n      pop\n        /* \"#utility.yul\":5780:6190   */\n      swap3\n      swap2\n      pop\n      pop\n      jump\t// out\n        /* \"#utility.yul\":6196:6376   */\n    tag_85:\n        /* \"#utility.yul\":6244:6321   */\n      0x4e487b7100000000000000000000000000000000000000000000000000000000\n        /* \"#utility.yul\":6241:6242   */\n      0x00\n        /* \"#utility.yul\":6234:6322   */\n      mstore\n        /* \"#utility.yul\":6341:6345   */\n      0x12\n        /* \"#utility.yul\":6338:6339   */\n      0x04\n        /* \"#utility.yul\":6331:6346   */\n      mstore\n        /* \"#utility.yul\":6365:6369   */\n      0x24\n        /* \"#utility.yul\":6362:6363   */\n      0x00\n        /* \"#utility.yul\":6355:6370   */\n      revert\n        /* \"#utility.yul\":6382:6567   */\n    tag_67:\n        /* \"#utility.yul\":6422:6423   */\n      0x00\n        /* \"#utility.yul\":6439:6459   */\n      tag_144\n        /* \"#utility.yul\":6457:6458   */\n      dup3\n        /* \"#utility.yul\":6439:6459   */\n      tag_69\n      jump\t// in\n    tag_144:\n        /* \"#utility.yul\":6434:6459   */\n      swap2\n      pop\n        /* \"#utility.yul\":6473:6493   */\n      tag_145\n        /* \"#utility.yul\":6491:6492   */\n      dup4\n        /* \"#utility.yul\":6473:6493   */\n      tag_69\n      jump\t// in\n    tag_145:\n        /* \"#utility.yul\":6468:6493   */\n      swap3\n      pop\n        /* \"#utility.yul\":6512:6513   */\n      dup3\n        /* \"#utility.yul\":6502:6537   */\n      tag_146\n      jumpi\n        /* \"#utility.yul\":6517:6535   */\n      tag_147\n      tag_85\n      jump\t// in\n    tag_147:\n        /* \"#utility.yul\":6502:6537   */\n    tag_146:\n        /* \"#utility.yul\":6559:6560   */\n      dup3\n        /* \"#utility.yul\":6556:6557   */\n      dup3\n        /* \"#utility.yul\":6552:6561   */\n      div\n        /* \"#utility.yul\":6547:6561   */\n      swap1\n      pop\n        /* \"#utility.yul\":6382:6567   */\n      swap3\n      swap2\n      pop\n      pop\n      jump\t// out\n\n    auxdata: 0xa264697066735822122088e3809767bf381891c1fbaad96378483d95dd842a083744ed7ef5260a95b6ea64736f6c63430008220033\n}\n",
				"bytecode": {
					"linkReferences": {},
					"object": "608060405260405161094238038061094283398181016040528101906100259190610118565b5f3411610067576040517f08c379a000000000000000000000000000000000000000000000000000000000815260040161005e9061019d565b60405180910390fd5b805f5f6101000a81548173ffffffffffffffffffffffffffffffffffffffff021916908373ffffffffffffffffffffffffffffffffffffffff1602179055504260018190555034600281905550506101bb565b5f5ffd5b5f73ffffffffffffffffffffffffffffffffffffffff82169050919050565b5f6100e7826100be565b9050919050565b6100f7816100dd565b8114610101575f5ffd5b50565b5f81519050610112816100ee565b92915050565b5f6020828403121561012d5761012c6100ba565b5b5f61013a84828501610104565b91505092915050565b5f82825260208201905092915050565b7f4d7573742066756e642074686520636f6e7472616374000000000000000000005f82015250565b5f610187601683610143565b915061019282610153565b602082019050919050565b5f6020820190508181035f8301526101b48161017b565b9050919050565b61077a806101c85f395ff3fe608060405234801561000f575f5ffd5b5060043610610086575f3560e01c80634e71d92d116100595780634e71d92d1461010257806378e979251461010c578063a556f8461461012a578063b3daa6521461014857610086565b80631a39d8ef1461008a57806338af3eed146100a857806345d30a17146100c65780634cfc4d30146100e4575b5f5ffd5b610092610166565b60405161009f9190610419565b60405180910390f35b6100b061016c565b6040516100bd9190610471565b60405180910390f35b6100ce610190565b6040516100db9190610419565b60405180910390f35b6100ec610196565b6040516100f99190610419565b60405180910390f35b61010a61019e565b005b61011461035d565b6040516101219190610419565b60405180910390f35b610132610363565b60405161013f9190610419565b60405180910390f35b6101506103fa565b60405161015d9190610419565b60405180910390f35b60025481565b5f5f9054906101000a900473ffffffffffffffffffffffffffffffffffffffff1681565b60035481565b6303b5380081565b5f5f9054906101000a900473ffffffffffffffffffffffffffffffffffffffff1673ffffffffffffffffffffffffffffffffffffffff163373ffffffffffffffffffffffffffffffffffffffff161461022c576040517f08c379a0000000000000000000000000000000000000000000000000000000008152600401610223906104e4565b60405180910390fd5b5f610235610363565b90505f8111610279576040517f08c379a00000000000000000000000000000000000000000000000000000000081526004016102709061054c565b60405180910390fd5b8060035f82825461028a9190610597565b925050819055505f5f5f9054906101000a900473ffffffffffffffffffffffffffffffffffffffff1673ffffffffffffffffffffffffffffffffffffffff16826040516102d6906105f7565b5f6040518083038185875af1925050503d805f8114610310576040519150601f19603f3d011682016040523d82523d5f602084013e610315565b606091505b5050905080610359576040517f08c379a000000000000000000000000000000000000000000000000000000000815260040161035090610655565b60405180910390fd5b5050565b60015481565b5f62ed4e006001546103759190610597565b421015610384575f90506103f7565b6303b538006001546103969190610597565b42106103b3576003546002546103ac9190610673565b90506103f7565b5f600154426103c29190610673565b90505f6303b53800826002546103d891906106a6565b6103e29190610714565b9050600354816103f29190610673565b925050505b90565b62ed4e0081565b5f819050919050565b61041381610401565b82525050565b5f60208201905061042c5f83018461040a565b92915050565b5f73ffffffffffffffffffffffffffffffffffffffff82169050919050565b5f61045b82610432565b9050919050565b61046b81610451565b82525050565b5f6020820190506104845f830184610462565b92915050565b5f82825260208201905092915050565b7f4f6e6c792062656e65666963696172792063616e20636c61696d0000000000005f82015250565b5f6104ce601a8361048a565b91506104d98261049a565b602082019050919050565b5f6020820190508181035f8301526104fb816104c2565b9050919050565b7f4e6f2066756e647320617661696c61626c6520666f7220636c61696d207965745f82015250565b5f61053660208361048a565b915061054182610502565b602082019050919050565b5f6020820190508181035f8301526105638161052a565b9050919050565b7f4e487b71000000000000000000000000000000000000000000000000000000005f52601160045260245ffd5b5f6105a182610401565b91506105ac83610401565b92508282019050808211156105c4576105c361056a565b5b92915050565b5f81905092915050565b50565b5f6105e25f836105ca565b91506105ed826105d4565b5f82019050919050565b5f610601826105d7565b9150819050919050565b7f5472616e73666572206661696c656400000000000000000000000000000000005f82015250565b5f61063f600f8361048a565b915061064a8261060b565b602082019050919050565b5f6020820190508181035f83015261066c81610633565b9050919050565b5f61067d82610401565b915061068883610401565b92508282039050818111156106a05761069f61056a565b5b92915050565b5f6106b082610401565b91506106bb83610401565b92508282026106c981610401565b915082820484148315176106e0576106df61056a565b5b5092915050565b7f4e487b71000000000000000000000000000000000000000000000000000000005f52601260045260245ffd5b5f61071e82610401565b915061072983610401565b925082610739576107386106e7565b5b82820490509291505056fea264697066735822122088e3809767bf381891c1fbaad96378483d95dd842a083744ed7ef5260a95b6ea64736f6c63430008220033",
					"opcodes": "PUSH1 0x80 PUSH1 0x40 MSTORE PUSH1 0x40 MLOAD PUSH2 0x942 CODESIZE SUB DUP1 PUSH2 0x942 DUP4 CODECOPY DUP2 DUP2 ADD PUSH1 0x40 MSTORE DUP2 ADD SWAP1 PUSH2 0x25 SWAP2 SWAP1 PUSH2 0x118 JUMP JUMPDEST PUSH0 CALLVALUE GT PUSH2 0x67 JUMPI PUSH1 0x40 MLOAD PUSH32 0x8C379A000000000000000000000000000000000000000000000000000000000 DUP2 MSTORE PUSH1 0x4 ADD PUSH2 0x5E SWAP1 PUSH2 0x19D JUMP JUMPDEST PUSH1 0x40 MLOAD DUP1 SWAP2 SUB SWAP1 REVERT JUMPDEST DUP1 PUSH0 PUSH0 PUSH2 0x100 EXP DUP2 SLOAD DUP2 PUSH20 0xFFFFFFFFFFFFFFFFFFFFFFFFFFFFFFFFFFFFFFFF MUL NOT AND SWAP1 DUP4 PUSH20 0xFFFFFFFFFFFFFFFFFFFFFFFFFFFFFFFFFFFFFFFF AND MUL OR SWAP1 SSTORE POP TIMESTAMP PUSH1 0x1 DUP2 SWAP1 SSTORE POP CALLVALUE PUSH1 0x2 DUP2 SWAP1 SSTORE POP POP PUSH2 0x1BB JUMP JUMPDEST PUSH0 PUSH0 REVERT JUMPDEST PUSH0 PUSH20 0xFFFFFFFFFFFFFFFFFFFFFFFFFFFFFFFFFFFFFFFF DUP3 AND SWAP1 POP SWAP2 SWAP1 POP JUMP JUMPDEST PUSH0 PUSH2 0xE7 DUP3 PUSH2 0xBE JUMP JUMPDEST SWAP1 POP SWAP2 SWAP1 POP JUMP JUMPDEST PUSH2 0xF7 DUP2 PUSH2 0xDD JUMP JUMPDEST DUP2 EQ PUSH2 0x101 JUMPI PUSH0 PUSH0 REVERT JUMPDEST POP JUMP JUMPDEST PUSH0 DUP2 MLOAD SWAP1 POP PUSH2 0x112 DUP2 PUSH2 0xEE JUMP JUMPDEST SWAP3 SWAP2 POP POP JUMP JUMPDEST PUSH0 PUSH1 0x20 DUP3 DUP5 SUB SLT ISZERO PUSH2 0x12D JUMPI PUSH2 0x12C PUSH2 0xBA JUMP JUMPDEST JUMPDEST PUSH0 PUSH2 0x13A DUP5 DUP3 DUP6 ADD PUSH2 0x104 JUMP JUMPDEST SWAP2 POP POP SWAP3 SWAP2 POP POP JUMP JUMPDEST PUSH0 DUP3 DUP3 MSTORE PUSH1 0x20 DUP3 ADD SWAP1 POP SWAP3 SWAP2 POP POP JUMP JUMPDEST PUSH32 0x4D7573742066756E642074686520636F6E747261637400000000000000000000 PUSH0 DUP3 ADD MSTORE POP JUMP JUMPDEST PUSH0 PUSH2 0x187 PUSH1 0x16 DUP4 PUSH2 0x143 JUMP JUMPDEST SWAP2 POP PUSH2 0x192 DUP3 PUSH2 0x153 JUMP JUMPDEST PUSH1 0x20 DUP3 ADD SWAP1 POP SWAP2 SWAP1 POP JUMP JUMPDEST PUSH0 PUSH1 0x20 DUP3 ADD SWAP1 POP DUP2 DUP2 SUB PUSH0 DUP4 ADD MSTORE PUSH2 0x1B4 DUP2 PUSH2 0x17B JUMP JUMPDEST SWAP1 POP SWAP2 SWAP1 POP JUMP JUMPDEST PUSH2 0x77A DUP1 PUSH2 0x1C8 PUSH0 CODECOPY PUSH0 RETURN INVALID PUSH1 0x80 PUSH1 0x40 MSTORE CALLVALUE DUP1 ISZERO PUSH2 0xF JUMPI PUSH0 PUSH0 REVERT JUMPDEST POP PUSH1 0x4 CALLDATASIZE LT PUSH2 0x86 JUMPI PUSH0 CALLDATALOAD PUSH1 0xE0 SHR DUP1 PUSH4 0x4E71D92D GT PUSH2 0x59 JUMPI DUP1 PUSH4 0x4E71D92D EQ PUSH2 0x102 JUMPI DUP1 PUSH4 0x78E97925 EQ PUSH2 0x10C JUMPI DUP1 PUSH4 0xA556F846 EQ PUSH2 0x12A JUMPI DUP1 PUSH4 0xB3DAA652 EQ PUSH2 0x148 JUMPI PUSH2 0x86 JUMP JUMPDEST DUP1 PUSH4 0x1A39D8EF EQ PUSH2 0x8A JUMPI DUP1 PUSH4 0x38AF3EED EQ PUSH2 0xA8 JUMPI DUP1 PUSH4 0x45D30A17 EQ PUSH2 0xC6 JUMPI DUP1 PUSH4 0x4CFC4D30 EQ PUSH2 0xE4 JUMPI JUMPDEST PUSH0 PUSH0 REVERT JUMPDEST PUSH2 0x92 PUSH2 0x166 JUMP JUMPDEST PUSH1 0x40 MLOAD PUSH2 0x9F SWAP2 SWAP1 PUSH2 0x419 JUMP JUMPDEST PUSH1 0x40 MLOAD DUP1 SWAP2 SUB SWAP1 RETURN JUMPDEST PUSH2 0xB0 PUSH2 0x16C JUMP JUMPDEST PUSH1 0x40 MLOAD PUSH2 0xBD SWAP2 SWAP1 PUSH2 0x471 JUMP JUMPDEST PUSH1 0x40 MLOAD DUP1 SWAP2 SUB SWAP1 RETURN JUMPDEST PUSH2 0xCE PUSH2 0x190 JUMP JUMPDEST PUSH1 0x40 MLOAD PUSH2 0xDB SWAP2 SWAP1 PUSH2 0x419 JUMP JUMPDEST PUSH1 0x40 MLOAD DUP1 SWAP2 SUB SWAP1 RETURN JUMPDEST PUSH2 0xEC PUSH2 0x196 JUMP JUMPDEST PUSH1 0x40 MLOAD PUSH2 0xF9 SWAP2 SWAP1 PUSH2 0x419 JUMP JUMPDEST PUSH1 0x40 MLOAD DUP1 SWAP2 SUB SWAP1 RETURN JUMPDEST PUSH2 0x10A PUSH2 0x19E JUMP JUMPDEST STOP JUMPDEST PUSH2 0x114 PUSH2 0x35D JUMP JUMPDEST PUSH1 0x40 MLOAD PUSH2 0x121 SWAP2 SWAP1 PUSH2 0x419 JUMP JUMPDEST PUSH1 0x40 MLOAD DUP1 SWAP2 SUB SWAP1 RETURN JUMPDEST PUSH2 0x132 PUSH2 0x363 JUMP JUMPDEST PUSH1 0x40 MLOAD PUSH2 0x13F SWAP2 SWAP1 PUSH2 0x419 JUMP JUMPDEST PUSH1 0x40 MLOAD DUP1 SWAP2 SUB SWAP1 RETURN JUMPDEST PUSH2 0x150 PUSH2 0x3FA JUMP JUMPDEST PUSH1 0x40 MLOAD PUSH2 0x15D SWAP2 SWAP1 PUSH2 0x419 JUMP JUMPDEST PUSH1 0x40 MLOAD DUP1 SWAP2 SUB SWAP1 RETURN JUMPDEST PUSH1 0x2 SLOAD DUP2 JUMP JUMPDEST PUSH0 PUSH0 SWAP1 SLOAD SWAP1 PUSH2 0x100 EXP SWAP1 DIV PUSH20 0xFFFFFFFFFFFFFFFFFFFFFFFFFFFFFFFFFFFFFFFF AND DUP2 JUMP JUMPDEST PUSH1 0x3 SLOAD DUP2 JUMP JUMPDEST PUSH4 0x3B53800 DUP2 JUMP JUMPDEST PUSH0 PUSH0 SWAP1 SLOAD SWAP1 PUSH2 0x100 EXP SWAP1 DIV PUSH20 0xFFFFFFFFFFFFFFFFFFFFFFFFFFFFFFFFFFFFFFFF AND PUSH20 0xFFFFFFFFFFFFFFFFFFFFFFFFFFFFFFFFFFFFFFFF AND CALLER PUSH20 0xFFFFFFFFFFFFFFFFFFFFFFFFFFFFFFFFFFFFFFFF AND EQ PUSH2 0x22C JUMPI PUSH1 0x40 MLOAD PUSH32 0x8C379A000000000000000000000000000000000000000000000000000000000 DUP2 MSTORE PUSH1 0x4 ADD PUSH2 0x223 SWAP1 PUSH2 0x4E4 JUMP JUMPDEST PUSH1 0x40 MLOAD DUP1 SWAP2 SUB SWAP1 REVERT JUMPDEST PUSH0 PUSH2 0x235 PUSH2 0x363 JUMP JUMPDEST SWAP1 POP PUSH0 DUP2 GT PUSH2 0x279 JUMPI PUSH1 0x40 MLOAD PUSH32 0x8C379A000000000000000000000000000000000000000000000000000000000 DUP2 MSTORE PUSH1 0x4 ADD PUSH2 0x270 SWAP1 PUSH2 0x54C JUMP JUMPDEST PUSH1 0x40 MLOAD DUP1 SWAP2 SUB SWAP1 REVERT JUMPDEST DUP1 PUSH1 0x3 PUSH0 DUP3 DUP3 SLOAD PUSH2 0x28A SWAP2 SWAP1 PUSH2 0x597 JUMP JUMPDEST SWAP3 POP POP DUP2 SWAP1 SSTORE POP PUSH0 PUSH0 PUSH0 SWAP1 SLOAD SWAP1 PUSH2 0x100 EXP SWAP1 DIV PUSH20 0xFFFFFFFFFFFFFFFFFFFFFFFFFFFFFFFFFFFFFFFF AND PUSH20 0xFFFFFFFFFFFFFFFFFFFFFFFFFFFFFFFFFFFFFFFF AND DUP3 PUSH1 0x40 MLOAD PUSH2 0x2D6 SWAP1 PUSH2 0x5F7 JUMP JUMPDEST PUSH0 PUSH1 0x40 MLOAD DUP1 DUP4 SUB DUP2 DUP6 DUP8 GAS CALL SWAP3 POP POP POP RETURNDATASIZE DUP1 PUSH0 DUP2 EQ PUSH2 0x310 JUMPI PUSH1 0x40 MLOAD SWAP2 POP PUSH1 0x1F NOT PUSH1 0x3F RETURNDATASIZE ADD AND DUP3 ADD PUSH1 0x40 MSTORE RETURNDATASIZE DUP3 MSTORE RETURNDATASIZE PUSH0 PUSH1 0x20 DUP5 ADD RETURNDATACOPY PUSH2 0x315 JUMP JUMPDEST PUSH1 0x60 SWAP2 POP JUMPDEST POP POP SWAP1 POP DUP1 PUSH2 0x359 JUMPI PUSH1 0x40 MLOAD PUSH32 0x8C379A000000000000000000000000000000000000000000000000000000000 DUP2 MSTORE PUSH1 0x4 ADD PUSH2 0x350 SWAP1 PUSH2 0x655 JUMP JUMPDEST PUSH1 0x40 MLOAD DUP1 SWAP2 SUB SWAP1 REVERT JUMPDEST POP POP JUMP JUMPDEST PUSH1 0x1 SLOAD DUP2 JUMP JUMPDEST PUSH0 PUSH3 0xED4E00 PUSH1 0x1 SLOAD PUSH2 0x375 SWAP2 SWAP1 PUSH2 0x597 JUMP JUMPDEST TIMESTAMP LT ISZERO PUSH2 0x384 JUMPI PUSH0 SWAP1 POP PUSH2 0x3F7 JUMP JUMPDEST PUSH4 0x3B53800 PUSH1 0x1 SLOAD PUSH2 0x396 SWAP2 SWAP1 PUSH2 0x597 JUMP JUMPDEST TIMESTAMP LT PUSH2 0x3B3 JUMPI PUSH1 0x3 SLOAD PUSH1 0x2 SLOAD PUSH2 0x3AC SWAP2 SWAP1 PUSH2 0x673 JUMP JUMPDEST SWAP1 POP PUSH2 0x3F7 JUMP JUMPDEST PUSH0 PUSH1 0x1 SLOAD TIMESTAMP PUSH2 0x3C2 SWAP2 SWAP1 PUSH2 0x673 JUMP JUMPDEST SWAP1 POP PUSH0 PUSH4 0x3B53800 DUP3 PUSH1 0x2 SLOAD PUSH2 0x3D8 SWAP2 SWAP1 PUSH2 0x6A6 JUMP JUMPDEST PUSH2 0x3E2 SWAP2 SWAP1 PUSH2 0x714 JUMP JUMPDEST SWAP1 POP PUSH1 0x3 SLOAD DUP2 PUSH2 0x3F2 SWAP2 SWAP1 PUSH2 0x673 JUMP JUMPDEST SWAP3 POP POP POP JUMPDEST SWAP1 JUMP JUMPDEST PUSH3 0xED4E00 DUP2 JUMP JUMPDEST PUSH0 DUP2 SWAP1 POP SWAP2 SWAP1 POP JUMP JUMPDEST PUSH2 0x413 DUP2 PUSH2 0x401 JUMP JUMPDEST DUP3 MSTORE POP POP JUMP JUMPDEST PUSH0 PUSH1 0x20 DUP3 ADD SWAP1 POP PUSH2 0x42C PUSH0 DUP4 ADD DUP5 PUSH2 0x40A JUMP JUMPDEST SWAP3 SWAP2 POP POP JUMP JUMPDEST PUSH0 PUSH20 0xFFFFFFFFFFFFFFFFFFFFFFFFFFFFFFFFFFFFFFFF DUP3 AND SWAP1 POP SWAP2 SWAP1 POP JUMP JUMPDEST PUSH0 PUSH2 0x45B DUP3 PUSH2 0x432 JUMP JUMPDEST SWAP1 POP SWAP2 SWAP1 POP JUMP JUMPDEST PUSH2 0x46B DUP2 PUSH2 0x451 JUMP JUMPDEST DUP3 MSTORE POP POP JUMP JUMPDEST PUSH0 PUSH1 0x20 DUP3 ADD SWAP1 POP PUSH2 0x484 PUSH0 DUP4 ADD DUP5 PUSH2 0x462 JUMP JUMPDEST SWAP3 SWAP2 POP POP JUMP JUMPDEST PUSH0 DUP3 DUP3 MSTORE PUSH1 0x20 DUP3 ADD SWAP1 POP SWAP3 SWAP2 POP POP JUMP JUMPDEST PUSH32 0x4F6E6C792062656E65666963696172792063616E20636C61696D000000000000 PUSH0 DUP3 ADD MSTORE POP JUMP JUMPDEST PUSH0 PUSH2 0x4CE PUSH1 0x1A DUP4 PUSH2 0x48A JUMP JUMPDEST SWAP2 POP PUSH2 0x4D9 DUP3 PUSH2 0x49A JUMP JUMPDEST PUSH1 0x20 DUP3 ADD SWAP1 POP SWAP2 SWAP1 POP JUMP JUMPDEST PUSH0 PUSH1 0x20 DUP3 ADD SWAP1 POP DUP2 DUP2 SUB PUSH0 DUP4 ADD MSTORE PUSH2 0x4FB DUP2 PUSH2 0x4C2 JUMP JUMPDEST SWAP1 POP SWAP2 SWAP1 POP JUMP JUMPDEST PUSH32 0x4E6F2066756E647320617661696C61626C6520666F7220636C61696D20796574 PUSH0 DUP3 ADD MSTORE POP JUMP JUMPDEST PUSH0 PUSH2 0x536 PUSH1 0x20 DUP4 PUSH2 0x48A JUMP JUMPDEST SWAP2 POP PUSH2 0x541 DUP3 PUSH2 0x502 JUMP JUMPDEST PUSH1 0x20 DUP3 ADD SWAP1 POP SWAP2 SWAP1 POP JUMP JUMPDEST PUSH0 PUSH1 0x20 DUP3 ADD SWAP1 POP DUP2 DUP2 SUB PUSH0 DUP4 ADD MSTORE PUSH2 0x563 DUP2 PUSH2 0x52A JUMP JUMPDEST SWAP1 POP SWAP2 SWAP1 POP JUMP JUMPDEST PUSH32 0x4E487B7100000000000000000000000000000000000000000000000000000000 PUSH0 MSTORE PUSH1 0x11 PUSH1 0x4 MSTORE PUSH1 0x24 PUSH0 REVERT JUMPDEST PUSH0 PUSH2 0x5A1 DUP3 PUSH2 0x401 JUMP JUMPDEST SWAP2 POP PUSH2 0x5AC DUP4 PUSH2 0x401 JUMP JUMPDEST SWAP3 POP DUP3 DUP3 ADD SWAP1 POP DUP1 DUP3 GT ISZERO PUSH2 0x5C4 JUMPI PUSH2 0x5C3 PUSH2 0x56A JUMP JUMPDEST JUMPDEST SWAP3 SWAP2 POP POP JUMP JUMPDEST PUSH0 DUP2 SWAP1 POP SWAP3 SWAP2 POP POP JUMP JUMPDEST POP JUMP JUMPDEST PUSH0 PUSH2 0x5E2 PUSH0 DUP4 PUSH2 0x5CA JUMP JUMPDEST SWAP2 POP PUSH2 0x5ED DUP3 PUSH2 0x5D4 JUMP JUMPDEST PUSH0 DUP3 ADD SWAP1 POP SWAP2 SWAP1 POP JUMP JUMPDEST PUSH0 PUSH2 0x601 DUP3 PUSH2 0x5D7 JUMP JUMPDEST SWAP2 POP DUP2 SWAP1 POP SWAP2 SWAP1 POP JUMP JUMPDEST PUSH32 0x5472616E73666572206661696C65640000000000000000000000000000000000 PUSH0 DUP3 ADD MSTORE POP JUMP JUMPDEST PUSH0 PUSH2 0x63F PUSH1 0xF DUP4 PUSH2 0x48A JUMP JUMPDEST SWAP2 POP PUSH2 0x64A DUP3 PUSH2 0x60B JUMP JUMPDEST PUSH1 0x20 DUP3 ADD SWAP1 POP SWAP2 SWAP1 POP JUMP JUMPDEST PUSH0 PUSH1 0x20 DUP3 ADD SWAP1 POP DUP2 DUP2 SUB PUSH0 DUP4 ADD MSTORE PUSH2 0x66C DUP2 PUSH2 0x633 JUMP JUMPDEST SWAP1 POP SWAP2 SWAP1 POP JUMP JUMPDEST PUSH0 PUSH2 0x67D DUP3 PUSH2 0x401 JUMP JUMPDEST SWAP2 POP PUSH2 0x688 DUP4 PUSH2 0x401 JUMP JUMPDEST SWAP3 POP DUP3 DUP3 SUB SWAP1 POP DUP2 DUP2 GT ISZERO PUSH2 0x6A0 JUMPI PUSH2 0x69F PUSH2 0x56A JUMP JUMPDEST JUMPDEST SWAP3 SWAP2 POP POP JUMP JUMPDEST PUSH0 PUSH2 0x6B0 DUP3 PUSH2 0x401 JUMP JUMPDEST SWAP2 POP PUSH2 0x6BB DUP4 PUSH2 0x401 JUMP JUMPDEST SWAP3 POP DUP3 DUP3 MUL PUSH2 0x6C9 DUP2 PUSH2 0x401 JUMP JUMPDEST SWAP2 POP DUP3 DUP3 DIV DUP5 EQ DUP4 ISZERO OR PUSH2 0x6E0 JUMPI PUSH2 0x6DF PUSH2 0x56A JUMP JUMPDEST JUMPDEST POP SWAP3 SWAP2 POP POP JUMP JUMPDEST PUSH32 0x4E487B7100000000000000000000000000000000000000000000000000000000 PUSH0 MSTORE PUSH1 0x12 PUSH1 0x4 MSTORE PUSH1 0x24 PUSH0 REVERT JUMPDEST PUSH0 PUSH2 0x71E DUP3 PUSH2 0x401 JUMP JUMPDEST SWAP2 POP PUSH2 0x729 DUP4 PUSH2 0x401 JUMP JUMPDEST SWAP3 POP DUP3 PUSH2 0x739 JUMPI PUSH2 0x738 PUSH2 0x6E7 JUMP JUMPDEST JUMPDEST DUP3 DUP3 DIV SWAP1 POP SWAP3 SWAP2 POP POP JUMP INVALID LOG2 PUSH5 0x6970667358 0x22 SLT KECCAK256 DUP9 CALLF 0x8097 PUSH8 0xBF381891C1FBAAD9 PUSH4 0x78483D95 0xDD DUP5 0x2A ADDMOD CALLDATACOPY PREVRANDAO 0xED PUSH31 0xF5260A95B6EA64736F6C634300082200330000000000000000000000000000 "
				},
				"gasEstimates": {
					"creation": {
						"codeDepositCost": "382800",
						"executionCost": "infinite",
						"totalCost": "infinite"
					},
					"external": {
						"CLIFF_DURATION()": "391",
						"VESTING_DURATION()": "392",
						"beneficiary()": "2530",
						"claim()": "infinite",
						"claimableAmount()": "infinite",
						"releasedAmount()": "2470",
						"startTime()": "2447",
						"totalAmount()": "2426"
					}
				},
				"methodIdentifiers": {
					"CLIFF_DURATION()": "b3daa652",
					"VESTING_DURATION()": "4cfc4d30",
					"beneficiary()": "38af3eed",
					"claim()": "4e71d92d",
					"claimableAmount()": "a556f846",
					"releasedAmount()": "45d30a17",
					"startTime()": "78e97925",
					"totalAmount()": "1a39d8ef"
				}
			},
			"storageLayout": {
				"storage": [
					{
						"astId": 4,
						"contract": "TokenVesting.sol:TokenVesting",
						"label": "beneficiary",
						"offset": 0,
						"slot": "0",
						"type": "t_address"
					},
					{
						"astId": 6,
						"contract": "TokenVesting.sol:TokenVesting",
						"label": "startTime",
						"offset": 0,
						"slot": "1",
						"type": "t_uint256"
					},
					{
						"astId": 8,
						"contract": "TokenVesting.sol:TokenVesting",
						"label": "totalAmount",
						"offset": 0,
						"slot": "2",
						"type": "t_uint256"
					},
					{
						"astId": 10,
						"contract": "TokenVesting.sol:TokenVesting",
						"label": "releasedAmount",
						"offset": 0,
						"slot": "3",
						"type": "t_uint256"
					}
				],
				"types": {
					"t_address": {
						"encoding": "inplace",
						"label": "address",
						"numberOfBytes": "20"
					},
					"t_uint256": {
						"encoding": "inplace",
						"label": "uint256",
						"numberOfBytes": "32"
					}
				}
			},
			"userdoc": {
				"kind": "user",
				"methods": {
					"claim()": {
						"notice": "Employee withdraws currently vested portion."
					},
					"claimableAmount()": {
						"notice": "Calculates claimable funds. 0 if before 6-month cliff."
					},
					"constructor": {
						"notice": "Initializes the contract with a beneficiary and total fund amount."
					}
				},
				"notice": "Task 3: Token Vesting with 6-Month Cliff",
				"version": 1
			}
		}
	}
}