{
	"TokenVesting.sol": {
		"TokenVesting": {
			"abi": [
				{
					"inputs": [
						{
							"internalType": "address",
							"name": "_beneficiary",
							"type": "address"
						}
					],
					"stateMutability": "payable",
					"type": "constructor"
				},
				{
					"inputs": [],
					"name": "CLIFF_DURATION",
					"outputs": [
						{
							"internalType": "uint256",
							"name": "",
							"type": "uint256"
						}
					],
					"stateMutability": "view",
					"type": "function"
				},
				{
					"inputs": [],
					"name": "VESTING_DURATION",
					"outputs": [
						{
							"internalType": "uint256",
							"name": "",
							"type": "uint256"
						}
					],
					"stateMutability": "view",
					"type": "function"
				},
				{
					"inputs": [],
					"name": "beneficiary",
					"outputs": [
						{
							"internalType": "address",
							"name": "",
							"type": "address"
						}
					],
					"stateMutability": "view",
					"type": "function"
				},
				{
					"inputs": [
						{
							"internalType": "uint256",
							"name": "_amount",
							"type": "uint256"
						}
					],
					"name": "claim",
					"outputs": [],
					"stateMutability": "nonpayable",
					"type": "function"
				},
				{
					"inputs": [],
					"name": "claimableAmount",
					"outputs": [
						{
							"internalType": "uint256",
							"name": "",
							"type": "uint256"
						}
					],
					"stateMutability": "view",
					"type": "function"
				},
				{
					"inputs": [],
					"name": "releasedAmount",
					"outputs": [
						{
							"internalType": "uint256",
							"name": "",
							"type": "uint256"
						}
					],
					"stateMutability": "view",
					"type": "function"
				},
				{
					"inputs": [],
					"name": "startTime",
					"outputs": [
						{
							"internalType": "uint256",
							"name": "",
							"type": "uint256"
						}
					],
					"stateMutability": "view",
					"type": "function"
				},
				{
					"inputs": [],
					"name": "totalAmount",
					"outputs": [
						{
							"internalType": "uint256",
							"name": "",
							"type": "uint256"
						}
					],
					"stateMutability": "view",
					"type": "function"
				}
			],
			"devdoc": {
				"details": "Implements block.timestamp for time tracking and linear release.",
				"kind": "dev",
				"methods": {
					"claim(uint256)": {
						"params": {
							"_amount": "The amount in wei to claim. Use 0 to claim all available."
						}
					}
				},
				"title": "TokenVesting",
				"version": 1
			},
			"evm": {
				"assembly": "    /* \"TokenVesting.sol\":221:2144  contract TokenVesting {... */\n  mstore(0x40, 0x80)\n    /* \"TokenVesting.sol\":604:822  constructor(address _beneficiary) payable {... */\n  mload(0x40)\n  sub(codesize, bytecodeSize)\n  dup1\n  bytecodeSize\n  dup4\n  codecopy\n  dup2\n  dup2\n  add\n  0x40\n  mstore\n  dup2\n  add\n  swap1\n  tag_1\n  swap2\n  swap1\n  tag_2\n  jump\t// in\ntag_1:\n    /* \"TokenVesting.sol\":677:678  0 */\n  0x00\n    /* \"TokenVesting.sol\":665:674  msg.value */\n  callvalue\n    /* \"TokenVesting.sol\":665:678  msg.value > 0 */\n  gt\n    /* \"TokenVesting.sol\":657:705  require(msg.value > 0, \"Must fund the contract\") */\n  tag_5\n  jumpi\n  mload(0x40)\n  0x08c379a000000000000000000000000000000000000000000000000000000000\n  dup2\n  mstore\n  0x04\n  add\n  tag_6\n  swap1\n  tag_7\n  jump\t// in\ntag_6:\n  mload(0x40)\n  dup1\n  swap2\n  sub\n  swap1\n  revert\ntag_5:\n    /* \"TokenVesting.sol\":730:742  _beneficiary */\n  dup1\n    /* \"TokenVesting.sol\":716:727  beneficiary */\n  0x00\n  0x00\n    /* \"TokenVesting.sol\":716:742  beneficiary = _beneficiary */\n  0x0100\n  exp\n  dup2\n  sload\n  dup2\n  0xffffffffffffffffffffffffffffffffffffffff\n  mul\n  not\n  and\n  swap1\n  dup4\n  0xffffffffffffffffffffffffffffffffffffffff\n  and\n  mul\n  or\n  swap1\n  sstore\n  pop\n    /* \"TokenVesting.sol\":765:780  block.timestamp */\n  timestamp\n    /* \"TokenVesting.sol\":753:762  startTime */\n  0x01\n    /* \"TokenVesting.sol\":753:780  startTime = block.timestamp */\n  dup2\n  swap1\n  sstore\n  pop\n    /* \"TokenVesting.sol\":805:814  msg.value */\n  callvalue\n    /* \"TokenVesting.sol\":791:802  totalAmount */\n  0x02\n    /* \"TokenVesting.sol\":791:814  totalAmount = msg.value */\n  dup2\n  swap1\n  sstore\n  pop\n    /* \"TokenVesting.sol\":604:822  constructor(address _beneficiary) payable {... */\n  pop\n    /* \"TokenVesting.sol\":221:2144  contract TokenVesting {... */\n  jump(tag_8)\n    /* \"#utility.yul\":88:205   */\ntag_10:\n    /* \"#utility.yul\":197:198   */\n  0x00\n    /* \"#utility.yul\":194:195   */\n  0x00\n    /* \"#utility.yul\":187:199   */\n  revert\n    /* \"#utility.yul\":334:460   */\ntag_12:\n    /* \"#utility.yul\":371:378   */\n  0x00\n    /* \"#utility.yul\":411:453   */\n  0xffffffffffffffffffffffffffffffffffffffff\n    /* \"#utility.yul\":404:409   */\n  dup3\n    /* \"#utility.yul\":400:454   */\n  and\n    /* \"#utility.yul\":389:454   */\n  swap1\n  pop\n    /* \"#utility.yul\":334:460   */\n  swap2\n  swap1\n  pop\n  jump\t// out\n    /* \"#utility.yul\":466:562   */\ntag_13:\n    /* \"#utility.yul\":503:510   */\n  0x00\n    /* \"#utility.yul\":532:556   */\n  tag_25\n    /* \"#utility.yul\":550:555   */\n  dup3\n    /* \"#utility.yul\":532:556   */\n  tag_12\n  jump\t// in\ntag_25:\n    /* \"#utility.yul\":521:556   */\n  swap1\n  pop\n    /* \"#utility.yul\":466:562   */\n  swap2\n  swap1\n  pop\n  jump\t// out\n    /* \"#utility.yul\":568:690   */\ntag_14:\n    /* \"#utility.yul\":641:665   */\n  tag_27\n    /* \"#utility.yul\":659:664   */\n  dup2\n    /* \"#utility.yul\":641:665   */\n  tag_13\n  jump\t// in\ntag_27:\n    /* \"#utility.yul\":634:639   */\n  dup2\n    /* \"#utility.yul\":631:666   */\n  eq\n    /* \"#utility.yul\":621:684   */\n  tag_28\n  jumpi\n    /* \"#utility.yul\":680:681   */\n  0x00\n    /* \"#utility.yul\":677:678   */\n  0x00\n    /* \"#utility.yul\":670:682   */\n  revert\n    /* \"#utility.yul\":621:684   */\ntag_28:\n    /* \"#utility.yul\":568:690   */\n  pop\n  jump\t// out\n    /* \"#utility.yul\":696:839   */\ntag_15:\n    /* \"#utility.yul\":753:758   */\n  0x00\n    /* \"#utility.yul\":784:790   */\n  dup2\n    /* \"#utility.yul\":778:791   */\n  mload\n    /* \"#utility.yul\":769:791   */\n  swap1\n  pop\n    /* \"#utility.yul\":800:833   */\n  tag_30\n    /* \"#utility.yul\":827:832   */\n  dup2\n    /* \"#utility.yul\":800:833   */\n  tag_14\n  jump\t// in\ntag_30:\n    /* \"#utility.yul\":696:839   */\n  swap3\n  swap2\n  pop\n  pop\n  jump\t// out\n    /* \"#utility.yul\":845:1196   */\ntag_2:\n    /* \"#utility.yul\":915:921   */\n  0x00\n    /* \"#utility.yul\":964:966   */\n  0x20\n    /* \"#utility.yul\":952:961   */\n  dup3\n    /* \"#utility.yul\":943:950   */\n  dup5\n    /* \"#utility.yul\":939:962   */\n  sub\n    /* \"#utility.yul\":935:967   */\n  slt\n    /* \"#utility.yul\":932:1051   */\n  iszero\n  tag_32\n  jumpi\n    /* \"#utility.yul\":970:1049   */\n  tag_33\n  tag_10\n  jump\t// in\ntag_33:\n    /* \"#utility.yul\":932:1051   */\ntag_32:\n    /* \"#utility.yul\":1090:1091   */\n  0x00\n    /* \"#utility.yul\":1115:1179   */\n  tag_34\n    /* \"#utility.yul\":1171:1178   */\n  dup5\n    /* \"#utility.yul\":1162:1168   */\n  dup3\n    /* \"#utility.yul\":1151:1160   */\n  dup6\n    /* \"#utility.yul\":1147:1169   */\n  add\n    /* \"#utility.yul\":1115:1179   */\n  tag_15\n  jump\t// in\ntag_34:\n    /* \"#utility.yul\":1105:1179   */\n  swap2\n  pop\n    /* \"#utility.yul\":1061:1189   */\n  pop\n    /* \"#utility.yul\":845:1196   */\n  swap3\n  swap2\n  pop\n  pop\n  jump\t// out\n    /* \"#utility.yul\":1202:1371   */\ntag_16:\n    /* \"#utility.yul\":1286:1297   */\n  0x00\n    /* \"#utility.yul\":1320:1326   */\n  dup3\n    /* \"#utility.yul\":1315:1318   */\n  dup3\n    /* \"#utility.yul\":1308:1327   */\n  mstore\n    /* \"#utility.yul\":1360:1364   */\n  0x20\n    /* \"#utility.yul\":1355:1358   */\n  dup3\n    /* \"#utility.yul\":1351:1365   */\n  add\n    /* \"#utility.yul\":1336:1365   */\n  swap1\n  pop\n    /* \"#utility.yul\":1202:1371   */\n  swap3\n  swap2\n  pop\n  pop\n  jump\t// out\n    /* \"#utility.yul\":1377:1549   */\ntag_17:\n    /* \"#utility.yul\":1517:1541   */\n  0x4d7573742066756e642074686520636f6e747261637400000000000000000000\n    /* \"#utility.yul\":1513:1514   */\n  0x00\n    /* \"#utility.yul\":1505:1511   */\n  dup3\n    /* \"#utility.yul\":1501:1515   */\n  add\n    /* \"#utility.yul\":1494:1542   */\n  mstore\n    /* \"#utility.yul\":1377:1549   */\n  pop\n  jump\t// out\n    /* \"#utility.yul\":1555:1921   */\ntag_18:\n    /* \"#utility.yul\":1697:1700   */\n  0x00\n    /* \"#utility.yul\":1718:1785   */\n  tag_38\n    /* \"#utility.yul\":1782:1784   */\n  0x16\n    /* \"#utility.yul\":1777:1780   */\n  dup4\n    /* \"#utility.yul\":1718:1785   */\n  tag_16\n  jump\t// in\ntag_38:\n    /* \"#utility.yul\":1711:1785   */\n  swap2\n  pop\n    /* \"#utility.yul\":1794:1887   */\n  tag_39\n    /* \"#utility.yul\":1883:1886   */\n  dup3\n    /* \"#utility.yul\":1794:1887   */\n  tag_17\n  jump\t// in\ntag_39:\n    /* \"#utility.yul\":1912:1914   */\n  0x20\n    /* \"#utility.yul\":1907:1910   */\n  dup3\n    /* \"#utility.yul\":1903:1915   */\n  add\n    /* \"#utility.yul\":1896:1915   */\n  swap1\n  pop\n    /* \"#utility.yul\":1555:1921   */\n  swap2\n  swap1\n  pop\n  jump\t// out\n    /* \"#utility.yul\":1927:2346   */\ntag_7:\n    /* \"#utility.yul\":2093:2097   */\n  0x00\n    /* \"#utility.yul\":2131:2133   */\n  0x20\n    /* \"#utility.yul\":2120:2129   */\n  dup3\n    /* \"#utility.yul\":2116:2134   */\n  add\n    /* \"#utility.yul\":2108:2134   */\n  swap1\n  pop\n    /* \"#utility.yul\":2180:2189   */\n  dup2\n    /* \"#utility.yul\":2174:2178   */\n  dup2\n    /* \"#utility.yul\":2170:2190   */\n  sub\n    /* \"#utility.yul\":2166:2167   */\n  0x00\n    /* \"#utility.yul\":2155:2164   */\n  dup4\n    /* \"#utility.yul\":2151:2168   */\n  add\n    /* \"#utility.yul\":2144:2191   */\n  mstore\n    /* \"#utility.yul\":2208:2339   */\n  tag_41\n    /* \"#utility.yul\":2334:2338   */\n  dup2\n    /* \"#utility.yul\":2208:2339   */\n  tag_18\n  jump\t// in\ntag_41:\n    /* \"#utility.yul\":2200:2339   */\n  swap1\n  pop\n    /* \"#utility.yul\":1927:2346   */\n  swap2\n  swap1\n  pop\n  jump\t// out\n    /* \"TokenVesting.sol\":221:2144  contract TokenVesting {... */\ntag_8:\n  dataSize(sub_0)\n  dup1\n  dataOffset(sub_0)\n  0x00\n  codecopy\n  0x00\n  return\nstop\n\nsub_0: assembly {\n        /* \"TokenVesting.sol\":221:2144  contract TokenVesting {... */\n      mstore(0x40, 0x80)\n      callvalue\n      dup1\n      iszero\n      tag_1\n      jumpi\n      revert(0x00, 0x00)\n    tag_1:\n      pop\n      jumpi(tag_2, lt(calldatasize, 0x04))\n      shr(0xe0, calldataload(0x00))\n      dup1\n      0x4cfc4d30\n      gt\n      tag_11\n      jumpi\n      dup1\n      0x4cfc4d30\n      eq\n      tag_7\n      jumpi\n      dup1\n      0x78e97925\n      eq\n      tag_8\n      jumpi\n      dup1\n      0xa556f846\n      eq\n      tag_9\n      jumpi\n      dup1\n      0xb3daa652\n      eq\n      tag_10\n      jumpi\n      jump(tag_2)\n    tag_11:\n      dup1\n      0x1a39d8ef\n      eq\n      tag_3\n      jumpi\n      dup1\n      0x379607f5\n      eq\n      tag_4\n      jumpi\n      dup1\n      0x38af3eed\n      eq\n      tag_5\n      jumpi\n      dup1\n      0x45d30a17\n      eq\n      tag_6\n      jumpi\n    tag_2:\n      revert(0x00, 0x00)\n        /* \"TokenVesting.sol\":314:340  uint256 public totalAmount */\n    tag_3:\n      tag_12\n      tag_13\n      jump\t// in\n    tag_12:\n      mload(0x40)\n      tag_14\n      swap2\n      swap1\n      tag_15\n      jump\t// in\n    tag_14:\n      mload(0x40)\n      dup1\n      swap2\n      sub\n      swap1\n      return\n        /* \"TokenVesting.sol\":1521:2141  function claim(uint256 _amount) public {... */\n    tag_4:\n      tag_16\n      0x04\n      dup1\n      calldatasize\n      sub\n      dup2\n      add\n      swap1\n      tag_17\n      swap2\n      swap1\n      tag_18\n      jump\t// in\n    tag_17:\n      tag_19\n      jump\t// in\n    tag_16:\n      stop\n        /* \"TokenVesting.sol\":250:276  address public beneficiary */\n    tag_5:\n      tag_20\n      tag_21\n      jump\t// in\n    tag_20:\n      mload(0x40)\n      tag_22\n      swap2\n      swap1\n      tag_23\n      jump\t// in\n    tag_22:\n      mload(0x40)\n      dup1\n      swap2\n      sub\n      swap1\n      return\n        /* \"TokenVesting.sol\":347:376  uint256 public releasedAmount */\n    tag_6:\n      tag_24\n      tag_25\n      jump\t// in\n    tag_24:\n      mload(0x40)\n      tag_26\n      swap2\n      swap1\n      tag_15\n      jump\t// in\n    tag_26:\n      mload(0x40)\n      dup1\n      swap2\n      sub\n      swap1\n      return\n        /* \"TokenVesting.sol\":521:572  uint256 public constant VESTING_DURATION = 720 days */\n    tag_7:\n      tag_27\n      tag_28\n      jump\t// in\n    tag_27:\n      mload(0x40)\n      tag_29\n      swap2\n      swap1\n      tag_15\n      jump\t// in\n    tag_29:\n      mload(0x40)\n      dup1\n      swap2\n      sub\n      swap1\n      return\n        /* \"TokenVesting.sol\":283:307  uint256 public startTime */\n    tag_8:\n      tag_30\n      tag_31\n      jump\t// in\n    tag_30:\n      mload(0x40)\n      tag_32\n      swap2\n      swap1\n      tag_15\n      jump\t// in\n    tag_32:\n      mload(0x40)\n      dup1\n      swap2\n      sub\n      swap1\n      return\n        /* \"TokenVesting.sol\":830:1332  function claimableAmount() public view returns (uint256) {... */\n    tag_9:\n      tag_33\n      tag_34\n      jump\t// in\n    tag_33:\n      mload(0x40)\n      tag_35\n      swap2\n      swap1\n      tag_15\n      jump\t// in\n    tag_35:\n      mload(0x40)\n      dup1\n      swap2\n      sub\n      swap1\n      return\n        /* \"TokenVesting.sol\":453:502  uint256 public constant CLIFF_DURATION = 180 days */\n    tag_10:\n      tag_36\n      tag_37\n      jump\t// in\n    tag_36:\n      mload(0x40)\n      tag_38\n      swap2\n      swap1\n      tag_15\n      jump\t// in\n    tag_38:\n      mload(0x40)\n      dup1\n      swap2\n      sub\n      swap1\n      return\n        /* \"TokenVesting.sol\":314:340  uint256 public totalAmount */\n    tag_13:\n      sload(0x02)\n      dup2\n      jump\t// out\n        /* \"TokenVesting.sol\":1521:2141  function claim(uint256 _amount) public {... */\n    tag_19:\n        /* \"TokenVesting.sol\":1593:1604  beneficiary */\n      0x00\n      0x00\n      swap1\n      sload\n      swap1\n      0x0100\n      exp\n      swap1\n      div\n      0xffffffffffffffffffffffffffffffffffffffff\n      and\n        /* \"TokenVesting.sol\":1579:1604  msg.sender == beneficiary */\n      0xffffffffffffffffffffffffffffffffffffffff\n      and\n        /* \"TokenVesting.sol\":1579:1589  msg.sender */\n      caller\n        /* \"TokenVesting.sol\":1579:1604  msg.sender == beneficiary */\n      0xffffffffffffffffffffffffffffffffffffffff\n      and\n      eq\n        /* \"TokenVesting.sol\":1571:1635  require(msg.sender == beneficiary, \"Only beneficiary can claim\") */\n      tag_40\n      jumpi\n      mload(0x40)\n      0x08c379a000000000000000000000000000000000000000000000000000000000\n      dup2\n      mstore\n      0x04\n      add\n      tag_41\n      swap1\n      tag_42\n      jump\t// in\n    tag_41:\n      mload(0x40)\n      dup1\n      swap2\n      sub\n      swap1\n      revert\n    tag_40:\n        /* \"TokenVesting.sol\":1648:1665  uint256 available */\n      0x00\n        /* \"TokenVesting.sol\":1668:1685  claimableAmount() */\n      tag_43\n        /* \"TokenVesting.sol\":1668:1683  claimableAmount */\n      tag_34\n        /* \"TokenVesting.sol\":1668:1685  claimableAmount() */\n      jump\t// in\n    tag_43:\n        /* \"TokenVesting.sol\":1648:1685  uint256 available = claimableAmount() */\n      swap1\n      pop\n        /* \"TokenVesting.sol\":1716:1717  0 */\n      0x00\n        /* \"TokenVesting.sol\":1704:1713  available */\n      dup2\n        /* \"TokenVesting.sol\":1704:1717  available > 0 */\n      gt\n        /* \"TokenVesting.sol\":1696:1754  require(available > 0, \"No funds available for claim yet\") */\n      tag_44\n      jumpi\n      mload(0x40)\n      0x08c379a000000000000000000000000000000000000000000000000000000000\n      dup2\n      mstore\n      0x04\n      add\n      tag_45\n      swap1\n      tag_46\n      jump\t// in\n    tag_45:\n      mload(0x40)\n      dup1\n      swap2\n      sub\n      swap1\n      revert\n    tag_44:\n        /* \"TokenVesting.sol\":1827:1848  uint256 amountToClaim */\n      0x00\n        /* \"TokenVesting.sol\":1863:1864  0 */\n      0x00\n        /* \"TokenVesting.sol\":1852:1859  _amount */\n      dup4\n        /* \"TokenVesting.sol\":1852:1864  _amount == 0 */\n      eq\n        /* \"TokenVesting.sol\":1851:1887  (_amount == 0) ? available : _amount */\n      tag_47\n      jumpi\n        /* \"TokenVesting.sol\":1880:1887  _amount */\n      dup3\n        /* \"TokenVesting.sol\":1851:1887  (_amount == 0) ? available : _amount */\n      jump(tag_48)\n    tag_47:\n        /* \"TokenVesting.sol\":1868:1877  available */\n      dup2\n        /* \"TokenVesting.sol\":1851:1887  (_amount == 0) ? available : _amount */\n    tag_48:\n        /* \"TokenVesting.sol\":1827:1887  uint256 amountToClaim = (_amount == 0) ? available : _amount */\n      swap1\n      pop\n        /* \"TokenVesting.sol\":1925:1934  available */\n      dup2\n        /* \"TokenVesting.sol\":1908:1921  amountToClaim */\n      dup2\n        /* \"TokenVesting.sol\":1908:1934  amountToClaim <= available */\n      gt\n      iszero\n        /* \"TokenVesting.sol\":1900:1971  require(amountToClaim <= available, \"Amount exceeds claimable balance\") */\n      tag_49\n      jumpi\n      mload(0x40)\n      0x08c379a000000000000000000000000000000000000000000000000000000000\n      dup2\n      mstore\n      0x04\n      add\n      tag_50\n      swap1\n      tag_51\n      jump\t// in\n    tag_50:\n      mload(0x40)\n      dup1\n      swap2\n      sub\n      swap1\n      revert\n    tag_49:\n        /* \"TokenVesting.sol\":2002:2015  amountToClaim */\n      dup1\n        /* \"TokenVesting.sol\":1984:1998  releasedAmount */\n      0x03\n      0x00\n        /* \"TokenVesting.sol\":1984:2015  releasedAmount += amountToClaim */\n      dup3\n      dup3\n      sload\n      tag_52\n      swap2\n      swap1\n      tag_53\n      jump\t// in\n    tag_52:\n      swap3\n      pop\n      pop\n      dup2\n      swap1\n      sstore\n      pop\n        /* \"TokenVesting.sol\":2027:2039  bool success */\n      0x00\n        /* \"TokenVesting.sol\":2045:2056  beneficiary */\n      0x00\n      0x00\n      swap1\n      sload\n      swap1\n      0x0100\n      exp\n      swap1\n      div\n      0xffffffffffffffffffffffffffffffffffffffff\n      and\n        /* \"TokenVesting.sol\":2045:2061  beneficiary.call */\n      0xffffffffffffffffffffffffffffffffffffffff\n      and\n        /* \"TokenVesting.sol\":2069:2082  amountToClaim */\n      dup3\n        /* \"TokenVesting.sol\":2045:2087  beneficiary.call{value: amountToClaim}(\"\") */\n      mload(0x40)\n      tag_54\n      swap1\n      tag_55\n      jump\t// in\n    tag_54:\n      0x00\n      mload(0x40)\n      dup1\n      dup4\n      sub\n      dup2\n      dup6\n      dup8\n      gas\n      call\n      swap3\n      pop\n      pop\n      pop\n      returndatasize\n      dup1\n      0x00\n      dup2\n      eq\n      tag_58\n      jumpi\n      mload(0x40)\n      swap2\n      pop\n      and(add(returndatasize, 0x3f), not(0x1f))\n      dup3\n      add\n      0x40\n      mstore\n      returndatasize\n      dup3\n      mstore\n      returndatasize\n      0x00\n      0x20\n      dup5\n      add\n      returndatacopy\n      jump(tag_57)\n    tag_58:\n      0x60\n      swap2\n      pop\n    tag_57:\n      pop\n        /* \"TokenVesting.sol\":2026:2087  (bool success, ) = beneficiary.call{value: amountToClaim}(\"\") */\n      pop\n      swap1\n      pop\n        /* \"TokenVesting.sol\":2106:2113  success */\n      dup1\n        /* \"TokenVesting.sol\":2098:2133  require(success, \"Transfer failed\") */\n      tag_59\n      jumpi\n      mload(0x40)\n      0x08c379a000000000000000000000000000000000000000000000000000000000\n      dup2\n      mstore\n      0x04\n      add\n      tag_60\n      swap1\n      tag_61\n      jump\t// in\n    tag_60:\n      mload(0x40)\n      dup1\n      swap2\n      sub\n      swap1\n      revert\n    tag_59:\n        /* \"TokenVesting.sol\":1560:2141  {... */\n      pop\n      pop\n      pop\n        /* \"TokenVesting.sol\":1521:2141  function claim(uint256 _amount) public {... */\n      pop\n      jump\t// out\n        /* \"TokenVesting.sol\":250:276  address public beneficiary */\n    tag_21:\n      0x00\n      0x00\n      swap1\n      sload\n      swap1\n      0x0100\n      exp\n      swap1\n      div\n      0xffffffffffffffffffffffffffffffffffffffff\n      and\n      dup2\n      jump\t// out\n        /* \"TokenVesting.sol\":347:376  uint256 public releasedAmount */\n    tag_25:\n      sload(0x03)\n      dup2\n      jump\t// out\n        /* \"TokenVesting.sol\":521:572  uint256 public constant VESTING_DURATION = 720 days */\n    tag_28:\n        /* \"TokenVesting.sol\":564:572  720 days */\n      0x03b53800\n        /* \"TokenVesting.sol\":521:572  uint256 public constant VESTING_DURATION = 720 days */\n      dup2\n      jump\t// out\n        /* \"TokenVesting.sol\":283:307  uint256 public startTime */\n    tag_31:\n      sload(0x01)\n      dup2\n      jump\t// out\n        /* \"TokenVesting.sol\":830:1332  function claimableAmount() public view returns (uint256) {... */\n    tag_34:\n        /* \"TokenVesting.sol\":878:885  uint256 */\n      0x00\n        /* \"TokenVesting.sol\":494:502  180 days */\n      0xed4e00\n        /* \"TokenVesting.sol\":920:929  startTime */\n      sload(0x01)\n        /* \"TokenVesting.sol\":920:946  startTime + CLIFF_DURATION */\n      tag_63\n      swap2\n      swap1\n      tag_53\n      jump\t// in\n    tag_63:\n        /* \"TokenVesting.sol\":902:917  block.timestamp */\n      timestamp\n        /* \"TokenVesting.sol\":902:946  block.timestamp < startTime + CLIFF_DURATION */\n      lt\n        /* \"TokenVesting.sol\":898:983  if (block.timestamp < startTime + CLIFF_DURATION) {... */\n      iszero\n      tag_64\n      jumpi\n        /* \"TokenVesting.sol\":970:971  0 */\n      0x00\n        /* \"TokenVesting.sol\":963:971  return 0 */\n      swap1\n      pop\n      jump(tag_62)\n        /* \"TokenVesting.sol\":898:983  if (block.timestamp < startTime + CLIFF_DURATION) {... */\n    tag_64:\n        /* \"TokenVesting.sol\":564:572  720 days */\n      0x03b53800\n        /* \"TokenVesting.sol\":1018:1027  startTime */\n      sload(0x01)\n        /* \"TokenVesting.sol\":1018:1046  startTime + VESTING_DURATION */\n      tag_65\n      swap2\n      swap1\n      tag_53\n      jump\t// in\n    tag_65:\n        /* \"TokenVesting.sol\":999:1014  block.timestamp */\n      timestamp\n        /* \"TokenVesting.sol\":999:1046  block.timestamp >= startTime + VESTING_DURATION */\n      lt\n        /* \"TokenVesting.sol\":995:1325  if (block.timestamp >= startTime + VESTING_DURATION) {... */\n      tag_66\n      jumpi\n        /* \"TokenVesting.sol\":1084:1098  releasedAmount */\n      sload(0x03)\n        /* \"TokenVesting.sol\":1070:1081  totalAmount */\n      sload(0x02)\n        /* \"TokenVesting.sol\":1070:1098  totalAmount - releasedAmount */\n      tag_67\n      swap2\n      swap1\n      tag_68\n      jump\t// in\n    tag_67:\n        /* \"TokenVesting.sol\":1063:1098  return totalAmount - releasedAmount */\n      swap1\n      pop\n      jump(tag_62)\n        /* \"TokenVesting.sol\":995:1325  if (block.timestamp >= startTime + VESTING_DURATION) {... */\n    tag_66:\n        /* \"TokenVesting.sol\":1131:1149  uint256 timePassed */\n      0x00\n        /* \"TokenVesting.sol\":1170:1179  startTime */\n      sload(0x01)\n        /* \"TokenVesting.sol\":1152:1167  block.timestamp */\n      timestamp\n        /* \"TokenVesting.sol\":1152:1179  block.timestamp - startTime */\n      tag_70\n      swap2\n      swap1\n      tag_68\n      jump\t// in\n    tag_70:\n        /* \"TokenVesting.sol\":1131:1179  uint256 timePassed = block.timestamp - startTime */\n      swap1\n      pop\n        /* \"TokenVesting.sol\":1194:1214  uint256 vestedAmount */\n      0x00\n        /* \"TokenVesting.sol\":564:572  720 days */\n      0x03b53800\n        /* \"TokenVesting.sol\":1232:1242  timePassed */\n      dup3\n        /* \"TokenVesting.sol\":1218:1229  totalAmount */\n      sload(0x02)\n        /* \"TokenVesting.sol\":1218:1242  totalAmount * timePassed */\n      tag_71\n      swap2\n      swap1\n      tag_72\n      jump\t// in\n    tag_71:\n        /* \"TokenVesting.sol\":1217:1262  (totalAmount * timePassed) / VESTING_DURATION */\n      tag_73\n      swap2\n      swap1\n      tag_74\n      jump\t// in\n    tag_73:\n        /* \"TokenVesting.sol\":1194:1262  uint256 vestedAmount = (totalAmount * timePassed) / VESTING_DURATION */\n      swap1\n      pop\n        /* \"TokenVesting.sol\":1299:1313  releasedAmount */\n      sload(0x03)\n        /* \"TokenVesting.sol\":1284:1296  vestedAmount */\n      dup2\n        /* \"TokenVesting.sol\":1284:1313  vestedAmount - releasedAmount */\n      tag_75\n      swap2\n      swap1\n      tag_68\n      jump\t// in\n    tag_75:\n        /* \"TokenVesting.sol\":1277:1313  return vestedAmount - releasedAmount */\n      swap3\n      pop\n      pop\n      pop\n        /* \"TokenVesting.sol\":830:1332  function claimableAmount() public view returns (uint256) {... */\n    tag_62:\n      swap1\n      jump\t// out\n        /* \"TokenVesting.sol\":453:502  uint256 public constant CLIFF_DURATION = 180 days */\n    tag_37:\n        /* \"TokenVesting.sol\":494:502  180 days */\n      0xed4e00\n        /* \"TokenVesting.sol\":453:502  uint256 public constant CLIFF_DURATION = 180 days */\n      dup2\n      jump\t// out\n        /* \"#utility.yul\":7:84   */\n    tag_76:\n        /* \"#utility.yul\":44:51   */\n      0x00\n        /* \"#utility.yul\":73:78   */\n      dup2\n        /* \"#utility.yul\":62:78   */\n      swap1\n      pop\n        /* \"#utility.yul\":7:84   */\n      swap2\n      swap1\n      pop\n      jump\t// out\n        /* \"#utility.yul\":90:208   */\n    tag_77:\n        /* \"#utility.yul\":177:201   */\n      tag_103\n        /* \"#utility.yul\":195:200   */\n      dup2\n        /* \"#utility.yul\":177:201   */\n      tag_76\n      jump\t// in\n    tag_103:\n        /* \"#utility.yul\":172:175   */\n      dup3\n        /* \"#utility.yul\":165:202   */\n      mstore\n        /* \"#utility.yul\":90:208   */\n      pop\n      pop\n      jump\t// out\n        /* \"#utility.yul\":214:436   */\n    tag_15:\n        /* \"#utility.yul\":307:311   */\n      0x00\n        /* \"#utility.yul\":345:347   */\n      0x20\n        /* \"#utility.yul\":334:343   */\n      dup3\n        /* \"#utility.yul\":330:348   */\n      add\n        /* \"#utility.yul\":322:348   */\n      swap1\n      pop\n        /* \"#utility.yul\":358:429   */\n      tag_105\n        /* \"#utility.yul\":426:427   */\n      0x00\n        /* \"#utility.yul\":415:424   */\n      dup4\n        /* \"#utility.yul\":411:428   */\n      add\n        /* \"#utility.yul\":402:408   */\n      dup5\n        /* \"#utility.yul\":358:429   */\n      tag_77\n      jump\t// in\n    tag_105:\n        /* \"#utility.yul\":214:436   */\n      swap3\n      swap2\n      pop\n      pop\n      jump\t// out\n        /* \"#utility.yul\":523:640   */\n    tag_79:\n        /* \"#utility.yul\":632:633   */\n      0x00\n        /* \"#utility.yul\":629:630   */\n      0x00\n        /* \"#utility.yul\":622:634   */\n      revert\n        /* \"#utility.yul\":769:891   */\n    tag_81:\n        /* \"#utility.yul\":842:866   */\n      tag_110\n        /* \"#utility.yul\":860:865   */\n      dup2\n        /* \"#utility.yul\":842:866   */\n      tag_76\n      jump\t// in\n    tag_110:\n        /* \"#utility.yul\":835:840   */\n      dup2\n        /* \"#utility.yul\":832:867   */\n      eq\n        /* \"#utility.yul\":822:885   */\n      tag_111\n      jumpi\n        /* \"#utility.yul\":881:882   */\n      0x00\n        /* \"#utility.yul\":878:879   */\n      0x00\n        /* \"#utility.yul\":871:883   */\n      revert\n        /* \"#utility.yul\":822:885   */\n    tag_111:\n        /* \"#utility.yul\":769:891   */\n      pop\n      jump\t// out\n        /* \"#utility.yul\":897:1036   */\n    tag_82:\n        /* \"#utility.yul\":943:948   */\n      0x00\n        /* \"#utility.yul\":981:987   */\n      dup2\n        /* \"#utility.yul\":968:988   */\n      calldataload\n        /* \"#utility.yul\":959:988   */\n      swap1\n      pop\n        /* \"#utility.yul\":997:1030   */\n      tag_113\n        /* \"#utility.yul\":1024:1029   */\n      dup2\n        /* \"#utility.yul\":997:1030   */\n      tag_81\n      jump\t// in\n    tag_113:\n        /* \"#utility.yul\":897:1036   */\n      swap3\n      swap2\n      pop\n      pop\n      jump\t// out\n        /* \"#utility.yul\":1042:1371   */\n    tag_18:\n        /* \"#utility.yul\":1101:1107   */\n      0x00\n        /* \"#utility.yul\":1150:1152   */\n      0x20\n        /* \"#utility.yul\":1138:1147   */\n      dup3\n        /* \"#utility.yul\":1129:1136   */\n      dup5\n        /* \"#utility.yul\":1125:1148   */\n      sub\n        /* \"#utility.yul\":1121:1153   */\n      slt\n        /* \"#utility.yul\":1118:1237   */\n      iszero\n      tag_115\n      jumpi\n        /* \"#utility.yul\":1156:1235   */\n      tag_116\n      tag_79\n      jump\t// in\n    tag_116:\n        /* \"#utility.yul\":1118:1237   */\n    tag_115:\n        /* \"#utility.yul\":1276:1277   */\n      0x00\n        /* \"#utility.yul\":1301:1354   */\n      tag_117\n        /* \"#utility.yul\":1346:1353   */\n      dup5\n        /* \"#utility.yul\":1337:1343   */\n      dup3\n        /* \"#utility.yul\":1326:1335   */\n      dup6\n        /* \"#utility.yul\":1322:1344   */\n      add\n        /* \"#utility.yul\":1301:1354   */\n      tag_82\n      jump\t// in\n    tag_117:\n        /* \"#utility.yul\":1291:1354   */\n      swap2\n      pop\n        /* \"#utility.yul\":1247:1364   */\n      pop\n        /* \"#utility.yul\":1042:1371   */\n      swap3\n      swap2\n      pop\n      pop\n      jump\t// out\n        /* \"#utility.yul\":1377:1503   */\n    tag_83:\n        /* \"#utility.yul\":1414:1421   */\n      0x00\n        /* \"#utility.yul\":1454:1496   */\n      0xffffffffffffffffffffffffffffffffffffffff\n        /* \"#utility.yul\":1447:1452   */\n      dup3\n        /* \"#utility.yul\":1443:1497   */\n      and\n        /* \"#utility.yul\":1432:1497   */\n      swap1\n      pop\n        /* \"#utility.yul\":1377:1503   */\n      swap2\n      swap1\n      pop\n      jump\t// out\n        /* \"#utility.yul\":1509:1605   */\n    tag_84:\n        /* \"#utility.yul\":1546:1553   */\n      0x00\n        /* \"#utility.yul\":1575:1599   */\n      tag_120\n        /* \"#utility.yul\":1593:1598   */\n      dup3\n        /* \"#utility.yul\":1575:1599   */\n      tag_83\n      jump\t// in\n    tag_120:\n        /* \"#utility.yul\":1564:1599   */\n      swap1\n      pop\n        /* \"#utility.yul\":1509:1605   */\n      swap2\n      swap1\n      pop\n      jump\t// out\n        /* \"#utility.yul\":1611:1729   */\n    tag_85:\n        /* \"#utility.yul\":1698:1722   */\n      tag_122\n        /* \"#utility.yul\":1716:1721   */\n      dup2\n        /* \"#utility.yul\":1698:1722   */\n      tag_84\n      jump\t// in\n    tag_122:\n        /* \"#utility.yul\":1693:1696   */\n      dup3\n        /* \"#utility.yul\":1686:1723   */\n      mstore\n        /* \"#utility.yul\":1611:1729   */\n      pop\n      pop\n      jump\t// out\n        /* \"#utility.yul\":1735:1957   */\n    tag_23:\n        /* \"#utility.yul\":1828:1832   */\n      0x00\n        /* \"#utility.yul\":1866:1868   */\n      0x20\n        /* \"#utility.yul\":1855:1864   */\n      dup3\n        /* \"#utility.yul\":1851:1869   */\n      add\n        /* \"#utility.yul\":1843:1869   */\n      swap1\n      pop\n        /* \"#utility.yul\":1879:1950   */\n      tag_124\n        /* \"#utility.yul\":1947:1948   */\n      0x00\n        /* \"#utility.yul\":1936:1945   */\n      dup4\n        /* \"#utility.yul\":1932:1949   */\n      add\n        /* \"#utility.yul\":1923:1929   */\n      dup5\n        /* \"#utility.yul\":1879:1950   */\n      tag_85\n      jump\t// in\n    tag_124:\n        /* \"#utility.yul\":1735:1957   */\n      swap3\n      swap2\n      pop\n      pop\n      jump\t// out\n        /* \"#utility.yul\":1963:2132   */\n    tag_86:\n        /* \"#utility.yul\":2047:2058   */\n      0x00\n        /* \"#utility.yul\":2081:2087   */\n      dup3\n        /* \"#utility.yul\":2076:2079   */\n      dup3\n        /* \"#utility.yul\":2069:2088   */\n      mstore\n        /* \"#utility.yul\":2121:2125   */\n      0x20\n        /* \"#utility.yul\":2116:2119   */\n      dup3\n        /* \"#utility.yul\":2112:2126   */\n      add\n        /* \"#utility.yul\":2097:2126   */\n      swap1\n      pop\n        /* \"#utility.yul\":1963:2132   */\n      swap3\n      swap2\n      pop\n      pop\n      jump\t// out\n        /* \"#utility.yul\":2138:2314   */\n    tag_87:\n        /* \"#utility.yul\":2278:2306   */\n      0x4f6e6c792062656e65666963696172792063616e20636c61696d000000000000\n        /* \"#utility.yul\":2274:2275   */\n      0x00\n        /* \"#utility.yul\":2266:2272   */\n      dup3\n        /* \"#utility.yul\":2262:2276   */\n      add\n        /* \"#utility.yul\":2255:2307   */\n      mstore\n        /* \"#utility.yul\":2138:2314   */\n      pop\n      jump\t// out\n        /* \"#utility.yul\":2320:2686   */\n    tag_88:\n        /* \"#utility.yul\":2462:2465   */\n      0x00\n        /* \"#utility.yul\":2483:2550   */\n      tag_128\n        /* \"#utility.yul\":2547:2549   */\n      0x1a\n        /* \"#utility.yul\":2542:2545   */\n      dup4\n        /* \"#utility.yul\":2483:2550   */\n      tag_86\n      jump\t// in\n    tag_128:\n        /* \"#utility.yul\":2476:2550   */\n      swap2\n      pop\n        /* \"#utility.yul\":2559:2652   */\n      tag_129\n        /* \"#utility.yul\":2648:2651   */\n      dup3\n        /* \"#utility.yul\":2559:2652   */\n      tag_87\n      jump\t// in\n    tag_129:\n        /* \"#utility.yul\":2677:2679   */\n      0x20\n        /* \"#utility.yul\":2672:2675   */\n      dup3\n        /* \"#utility.yul\":2668:2680   */\n      add\n        /* \"#utility.yul\":2661:2680   */\n      swap1\n      pop\n        /* \"#utility.yul\":2320:2686   */\n      swap2\n      swap1\n      pop\n      jump\t// out\n        /* \"#utility.yul\":2692:3111   */\n    tag_42:\n        /* \"#utility.yul\":2858:2862   */\n      0x00\n        /* \"#utility.yul\":2896:2898   */\n      0x20\n        /* \"#utility.yul\":2885:2894   */\n      dup3\n        /* \"#utility.yul\":2881:2899   */\n      add\n        /* \"#utility.yul\":2873:2899   */\n      swap1\n      pop\n        /* \"#utility.yul\":2945:2954   */\n      dup2\n        /* \"#utility.yul\":2939:2943   */\n      dup2\n        /* \"#utility.yul\":2935:2955   */\n      sub\n        /* \"#utility.yul\":2931:2932   */\n      0x00\n        /* \"#utility.yul\":2920:2929   */\n      dup4\n        /* \"#utility.yul\":2916:2933   */\n      add\n        /* \"#utility.yul\":2909:2956   */\n      mstore\n        /* \"#utility.yul\":2973:3104   */\n      tag_131\n        /* \"#utility.yul\":3099:3103   */\n      dup2\n        /* \"#utility.yul\":2973:3104   */\n      tag_88\n      jump\t// in\n    tag_131:\n        /* \"#utility.yul\":2965:3104   */\n      swap1\n      pop\n        /* \"#utility.yul\":2692:3111   */\n      swap2\n      swap1\n      pop\n      jump\t// out\n        /* \"#utility.yul\":3117:3299   */\n    tag_89:\n        /* \"#utility.yul\":3257:3291   */\n      0x4e6f2066756e647320617661696c61626c6520666f7220636c61696d20796574\n        /* \"#utility.yul\":3253:3254   */\n      0x00\n        /* \"#utility.yul\":3245:3251   */\n      dup3\n        /* \"#utility.yul\":3241:3255   */\n      add\n        /* \"#utility.yul\":3234:3292   */\n      mstore\n        /* \"#utility.yul\":3117:3299   */\n      pop\n      jump\t// out\n        /* \"#utility.yul\":3305:3671   */\n    tag_90:\n        /* \"#utility.yul\":3447:3450   */\n      0x00\n        /* \"#utility.yul\":3468:3535   */\n      tag_134\n        /* \"#utility.yul\":3532:3534   */\n      0x20\n        /* \"#utility.yul\":3527:3530   */\n      dup4\n        /* \"#utility.yul\":3468:3535   */\n      tag_86\n      jump\t// in\n    tag_134:\n        /* \"#utility.yul\":3461:3535   */\n      swap2\n      pop\n        /* \"#utility.yul\":3544:3637   */\n      tag_135\n        /* \"#utility.yul\":3633:3636   */\n      dup3\n        /* \"#utility.yul\":3544:3637   */\n      tag_89\n      jump\t// in\n    tag_135:\n        /* \"#utility.yul\":3662:3664   */\n      0x20\n        /* \"#utility.yul\":3657:3660   */\n      dup3\n        /* \"#utility.yul\":3653:3665   */\n      add\n        /* \"#utility.yul\":3646:3665   */\n      swap1\n      pop\n        /* \"#utility.yul\":3305:3671   */\n      swap2\n      swap1\n      pop\n      jump\t// out\n        /* \"#utility.yul\":3677:4096   */\n    tag_46:\n        /* \"#utility.yul\":3843:3847   */\n      0x00\n        /* \"#utility.yul\":3881:3883   */\n      0x20\n        /* \"#utility.yul\":3870:3879   */\n      dup3\n        /* \"#utility.yul\":3866:3884   */\n      add\n        /* \"#utility.yul\":3858:3884   */\n      swap1\n      pop\n        /* \"#utility.yul\":3930:3939   */\n      dup2\n        /* \"#utility.yul\":3924:3928   */\n      dup2\n        /* \"#utility.yul\":3920:3940   */\n      sub\n        /* \"#utility.yul\":3916:3917   */\n      0x00\n        /* \"#utility.yul\":3905:3914   */\n      dup4\n        /* \"#utility.yul\":3901:3918   */\n      add\n        /* \"#utility.yul\":3894:3941   */\n      mstore\n        /* \"#utility.yul\":3958:4089   */\n      tag_137\n        /* \"#utility.yul\":4084:4088   */\n      dup2\n        /* \"#utility.yul\":3958:4089   */\n      tag_90\n      jump\t// in\n    tag_137:\n        /* \"#utility.yul\":3950:4089   */\n      swap1\n      pop\n        /* \"#utility.yul\":3677:4096   */\n      swap2\n      swap1\n      pop\n      jump\t// out\n        /* \"#utility.yul\":4102:4284   */\n    tag_91:\n        /* \"#utility.yul\":4242:4276   */\n      0x416d6f756e74206578636565647320636c61696d61626c652062616c616e6365\n        /* \"#utility.yul\":4238:4239   */\n      0x00\n        /* \"#utility.yul\":4230:4236   */\n      dup3\n        /* \"#utility.yul\":4226:4240   */\n      add\n        /* \"#utility.yul\":4219:4277   */\n      mstore\n        /* \"#utility.yul\":4102:4284   */\n      pop\n      jump\t// out\n        /* \"#utility.yul\":4290:4656   */\n    tag_92:\n        /* \"#utility.yul\":4432:4435   */\n      0x00\n        /* \"#utility.yul\":4453:4520   */\n      tag_140\n        /* \"#utility.yul\":4517:4519   */\n      0x20\n        /* \"#utility.yul\":4512:4515   */\n      dup4\n        /* \"#utility.yul\":4453:4520   */\n      tag_86\n      jump\t// in\n    tag_140:\n        /* \"#utility.yul\":4446:4520   */\n      swap2\n      pop\n        /* \"#utility.yul\":4529:4622   */\n      tag_141\n        /* \"#utility.yul\":4618:4621   */\n      dup3\n        /* \"#utility.yul\":4529:4622   */\n      tag_91\n      jump\t// in\n    tag_141:\n        /* \"#utility.yul\":4647:4649   */\n      0x20\n        /* \"#utility.yul\":4642:4645   */\n      dup3\n        /* \"#utility.yul\":4638:4650   */\n      add\n        /* \"#utility.yul\":4631:4650   */\n      swap1\n      pop\n        /* \"#utility.yul\":4290:4656   */\n      swap2\n      swap1\n      pop\n      jump\t// out\n        /* \"#utility.yul\":4662:5081   */\n    tag_51:\n        /* \"#utility.yul\":4828:4832   */\n      0x00\n        /* \"#utility.yul\":4866:4868   */\n      0x20\n        /* \"#utility.yul\":4855:4864   */\n      dup3\n        /* \"#utility.yul\":4851:4869   */\n      add\n        /* \"#utility.yul\":4843:4869   */\n      swap1\n      pop\n        /* \"#utility.yul\":4915:4924   */\n      dup2\n        /* \"#utility.yul\":4909:4913   */\n      dup2\n        /* \"#utility.yul\":4905:4925   */\n      sub\n        /* \"#utility.yul\":4901:4902   */\n      0x00\n        /* \"#utility.yul\":4890:4899   */\n      dup4\n        /* \"#utility.yul\":4886:4903   */\n      add\n        /* \"#utility.yul\":4879:4926   */\n      mstore\n        /* \"#utility.yul\":4943:5074   */\n      tag_143\n        /* \"#utility.yul\":5069:5073   */\n      dup2\n        /* \"#utility.yul\":4943:5074   */\n      tag_92\n      jump\t// in\n    tag_143:\n        /* \"#utility.yul\":4935:5074   */\n      swap1\n      pop\n        /* \"#utility.yul\":4662:5081   */\n      swap2\n      swap1\n      pop\n      jump\t// out\n        /* \"#utility.yul\":5087:5267   */\n    tag_93:\n        /* \"#utility.yul\":5135:5212   */\n      0x4e487b7100000000000000000000000000000000000000000000000000000000\n        /* \"#utility.yul\":5132:5133   */\n      0x00\n        /* \"#utility.yul\":5125:5213   */\n      mstore\n        /* \"#utility.yul\":5232:5236   */\n      0x11\n        /* \"#utility.yul\":5229:5230   */\n      0x04\n        /* \"#utility.yul\":5222:5237   */\n      mstore\n        /* \"#utility.yul\":5256:5260   */\n      0x24\n        /* \"#utility.yul\":5253:5254   */\n      0x00\n        /* \"#utility.yul\":5246:5261   */\n      revert\n        /* \"#utility.yul\":5273:5464   */\n    tag_53:\n        /* \"#utility.yul\":5313:5316   */\n      0x00\n        /* \"#utility.yul\":5332:5352   */\n      tag_146\n        /* \"#utility.yul\":5350:5351   */\n      dup3\n        /* \"#utility.yul\":5332:5352   */\n      tag_76\n      jump\t// in\n    tag_146:\n        /* \"#utility.yul\":5327:5352   */\n      swap2\n      pop\n        /* \"#utility.yul\":5366:5386   */\n      tag_147\n        /* \"#utility.yul\":5384:5385   */\n      dup4\n        /* \"#utility.yul\":5366:5386   */\n      tag_76\n      jump\t// in\n    tag_147:\n        /* \"#utility.yul\":5361:5386   */\n      swap3\n      pop\n        /* \"#utility.yul\":5409:5410   */\n      dup3\n        /* \"#utility.yul\":5406:5407   */\n      dup3\n        /* \"#utility.yul\":5402:5411   */\n      add\n        /* \"#utility.yul\":5395:5411   */\n      swap1\n      pop\n        /* \"#utility.yul\":5430:5433   */\n      dup1\n        /* \"#utility.yul\":5427:5428   */\n      dup3\n        /* \"#utility.yul\":5424:5434   */\n      gt\n        /* \"#utility.yul\":5421:5457   */\n      iszero\n      tag_148\n      jumpi\n        /* \"#utility.yul\":5437:5455   */\n      tag_149\n      tag_93\n      jump\t// in\n    tag_149:\n        /* \"#utility.yul\":5421:5457   */\n    tag_148:\n        /* \"#utility.yul\":5273:5464   */\n      swap3\n      swap2\n      pop\n      pop\n      jump\t// out\n        /* \"#utility.yul\":5470:5617   */\n    tag_94:\n        /* \"#utility.yul\":5571:5582   */\n      0x00\n        /* \"#utility.yul\":5608:5611   */\n      dup2\n        /* \"#utility.yul\":5593:5611   */\n      swap1\n      pop\n        /* \"#utility.yul\":5470:5617   */\n      swap3\n      swap2\n      pop\n      pop\n      jump\t// out\n        /* \"#utility.yul\":5623:5737   */\n    tag_95:\n      pop\n      jump\t// out\n        /* \"#utility.yul\":5743:6141   */\n    tag_96:\n        /* \"#utility.yul\":5902:5905   */\n      0x00\n        /* \"#utility.yul\":5923:6006   */\n      tag_153\n        /* \"#utility.yul\":6004:6005   */\n      0x00\n        /* \"#utility.yul\":5999:6002   */\n      dup4\n        /* \"#utility.yul\":5923:6006   */\n      tag_94\n      jump\t// in\n    tag_153:\n        /* \"#utility.yul\":5916:6006   */\n      swap2\n      pop\n        /* \"#utility.yul\":6015:6108   */\n      tag_154\n        /* \"#utility.yul\":6104:6107   */\n      dup3\n        /* \"#utility.yul\":6015:6108   */\n      tag_95\n      jump\t// in\n    tag_154:\n        /* \"#utility.yul\":6133:6134   */\n      0x00\n        /* \"#utility.yul\":6128:6131   */\n      dup3\n        /* \"#utility.yul\":6124:6135   */\n      add\n        /* \"#utility.yul\":6117:6135   */\n      swap1\n      pop\n        /* \"#utility.yul\":5743:6141   */\n      swap2\n      swap1\n      pop\n      jump\t// out\n        /* \"#utility.yul\":6147:6526   */\n    tag_55:\n        /* \"#utility.yul\":6331:6334   */\n      0x00\n        /* \"#utility.yul\":6353:6500   */\n      tag_156\n        /* \"#utility.yul\":6496:6499   */\n      dup3\n        /* \"#utility.yul\":6353:6500   */\n      tag_96\n      jump\t// in\n    tag_156:\n        /* \"#utility.yul\":6346:6500   */\n      swap2\n      pop\n        /* \"#utility.yul\":6517:6520   */\n      dup2\n        /* \"#utility.yul\":6510:6520   */\n      swap1\n      pop\n        /* \"#utility.yul\":6147:6526   */\n      swap2\n      swap1\n      pop\n      jump\t// out\n        /* \"#utility.yul\":6532:6697   */\n    tag_97:\n        /* \"#utility.yul\":6672:6689   */\n      0x5472616e73666572206661696c65640000000000000000000000000000000000\n        /* \"#utility.yul\":6668:6669   */\n      0x00\n        /* \"#utility.yul\":6660:6666   */\n      dup3\n        /* \"#utility.yul\":6656:6670   */\n      add\n        /* \"#utility.yul\":6649:6690   */\n      mstore\n        /* \"#utility.yul\":6532:6697   */\n      pop\n      jump\t// out\n        /* \"#utility.yul\":6703:7069   */\n    tag_98:\n        /* \"#utility.yul\":6845:6848   */\n      0x00\n        /* \"#utility.yul\":6866:6933   */\n      tag_159\n        /* \"#utility.yul\":6930:6932   */\n      0x0f\n        /* \"#utility.yul\":6925:6928   */\n      dup4\n        /* \"#utility.yul\":6866:6933   */\n      tag_86\n      jump\t// in\n    tag_159:\n        /* \"#utility.yul\":6859:6933   */\n      swap2\n      pop\n        /* \"#utility.yul\":6942:7035   */\n      tag_160\n        /* \"#utility.yul\":7031:7034   */\n      dup3\n        /* \"#utility.yul\":6942:7035   */\n      tag_97\n      jump\t// in\n    tag_160:\n        /* \"#utility.yul\":7060:7062   */\n      0x20\n        /* \"#utility.yul\":7055:7058   */\n      dup3\n        /* \"#utility.yul\":7051:7063   */\n      add\n        /* \"#utility.yul\":7044:7063   */\n      swap1\n      pop\n        /* \"#utility.yul\":6703:7069   */\n      swap2\n      swap1\n      pop\n      jump\t// out\n        /* \"#utility.yul\":7075:7494   */\n    tag_61:\n        /* \"#utility.yul\":7241:7245   */\n      0x00\n        /* \"#utility.yul\":7279:7281   */\n      0x20\n        /* \"#utility.yul\":7268:7277   */\n      dup3\n        /* \"#utility.yul\":7264:7282   */\n      add\n        /* \"#utility.yul\":7256:7282   */\n      swap1\n      pop\n        /* \"#utility.yul\":7328:7337   */\n      dup2\n        /* \"#utility.yul\":7322:7326   */\n      dup2\n        /* \"#utility.yul\":7318:7338   */\n      sub\n        /* \"#utility.yul\":7314:7315   */\n      0x00\n        /* \"#utility.yul\":7303:7312   */\n      dup4\n        /* \"#utility.yul\":7299:7316   */\n      add\n        /* \"#utility.yul\":7292:7339   */\n      mstore\n        /* \"#utility.yul\":7356:7487   */\n      tag_162\n        /* \"#utility.yul\":7482:7486   */\n      dup2\n        /* \"#utility.yul\":7356:7487   */\n      tag_98\n      jump\t// in\n    tag_162:\n        /* \"#utility.yul\":7348:7487   */\n      swap1\n      pop\n        /* \"#utility.yul\":7075:7494   */\n      swap2\n      swap1\n      pop\n      jump\t// out\n        /* \"#utility.yul\":7500:7694   */\n    tag_68:\n        /* \"#utility.yul\":7540:7544   */\n      0x00\n        /* \"#utility.yul\":7560:7580   */\n      tag_164\n        /* \"#utility.yul\":7578:7579   */\n      dup3\n        /* \"#utility.yul\":7560:7580   */\n      tag_76\n      jump\t// in\n    tag_164:\n        /* \"#utility.yul\":7555:7580   */\n      swap2\n      pop\n        /* \"#utility.yul\":7594:7614   */\n      tag_165\n        /* \"#utility.yul\":7612:7613   */\n      dup4\n        /* \"#utility.yul\":7594:7614   */\n      tag_76\n      jump\t// in\n    tag_165:\n        /* \"#utility.yul\":7589:7614   */\n      swap3\n      pop\n        /* \"#utility.yul\":7638:7639   */\n      dup3\n        /* \"#utility.yul\":7635:7636   */\n      dup3\n        /* \"#utility.yul\":7631:7640   */\n      sub\n        /* \"#utility.yul\":7623:7640   */\n      swap1\n      pop\n        /* \"#utility.yul\":7662:7663   */\n      dup2\n        /* \"#utility.yul\":7656:7660   */\n      dup2\n        /* \"#utility.yul\":7653:7664   */\n      gt\n        /* \"#utility.yul\":7650:7687   */\n      iszero\n      tag_166\n      jumpi\n        /* \"#utility.yul\":7667:7685   */\n      tag_167\n      tag_93\n      jump\t// in\n    tag_167:\n        /* \"#utility.yul\":7650:7687   */\n    tag_166:\n        /* \"#utility.yul\":7500:7694   */\n      swap3\n      swap2\n      pop\n      pop\n      jump\t// out\n        /* \"#utility.yul\":7700:8110   */\n    tag_72:\n        /* \"#utility.yul\":7740:7747   */\n      0x00\n        /* \"#utility.yul\":7763:7783   */\n      tag_169\n        /* \"#utility.yul\":7781:7782   */\n      dup3\n        /* \"#utility.yul\":7763:7783   */\n      tag_76\n      jump\t// in\n    tag_169:\n        /* \"#utility.yul\":7758:7783   */\n      swap2\n      pop\n        /* \"#utility.yul\":7797:7817   */\n      tag_170\n        /* \"#utility.yul\":7815:7816   */\n      dup4\n        /* \"#utility.yul\":7797:7817   */\n      tag_76\n      jump\t// in\n    tag_170:\n        /* \"#utility.yul\":7792:7817   */\n      swap3\n      pop\n        /* \"#utility.yul\":7852:7853   */\n      dup3\n        /* \"#utility.yul\":7849:7850   */\n      dup3\n        /* \"#utility.yul\":7845:7854   */\n      mul\n        /* \"#utility.yul\":7874:7904   */\n      tag_171\n        /* \"#utility.yul\":7892:7903   */\n      dup2\n        /* \"#utility.yul\":7874:7904   */\n      tag_76\n      jump\t// in\n    tag_171:\n        /* \"#utility.yul\":7863:7904   */\n      swap2\n      pop\n        /* \"#utility.yul\":8053:8054   */\n      dup3\n        /* \"#utility.yul\":8044:8051   */\n      dup3\n        /* \"#utility.yul\":8040:8055   */\n      div\n        /* \"#utility.yul\":8037:8038   */\n      dup5\n        /* \"#utility.yul\":8034:8056   */\n      eq\n        /* \"#utility.yul\":8014:8015   */\n      dup4\n        /* \"#utility.yul\":8007:8016   */\n      iszero\n        /* \"#utility.yul\":7987:8070   */\n      or\n        /* \"#utility.yul\":7964:8103   */\n      tag_172\n      jumpi\n        /* \"#utility.yul\":8083:8101   */\n      tag_173\n      tag_93\n      jump\t// in\n    tag_173:\n        /* \"#utility.yul\":7964:8103   */\n    tag_172:\n        /* \"#utility.yul\":7748:8110   */\n      pop\n        /* \"#utility.yul\":7700:8110   */\n      swap3\n      swap2\n      pop\n      pop\n      jump\t// out\n        /* \"#utility.yul\":8116:8296   */\n    tag_99:\n        /* \"#utility.yul\":8164:8241   */\n      0x4e487b7100000000000000000000000000000000000000000000000000000000\n        /* \"#utility.yul\":8161:8162   */\n      0x00\n        /* \"#utility.yul\":8154:8242   */\n      mstore\n        /* \"#utility.yul\":8261:8265   */\n      0x12\n        /* \"#utility.yul\":8258:8259   */\n      0x04\n        /* \"#utility.yul\":8251:8266   */\n      mstore\n        /* \"#utility.yul\":8285:8289   */\n      0x24\n        /* \"#utility.yul\":8282:8283   */\n      0x00\n        /* \"#utility.yul\":8275:8290   */\n      revert\n        /* \"#utility.yul\":8302:8487   */\n    tag_74:\n        /* \"#utility.yul\":8342:8343   */\n      0x00\n        /* \"#utility.yul\":8359:8379   */\n      tag_176\n        /* \"#utility.yul\":8377:8378   */\n      dup3\n        /* \"#utility.yul\":8359:8379   */\n      tag_76\n      jump\t// in\n    tag_176:\n        /* \"#utility.yul\":8354:8379   */\n      swap2\n      pop\n        /* \"#utility.yul\":8393:8413   */\n      tag_177\n        /* \"#utility.yul\":8411:8412   */\n      dup4\n        /* \"#utility.yul\":8393:8413   */\n      tag_76\n      jump\t// in\n    tag_177:\n        /* \"#utility.yul\":8388:8413   */\n      swap3\n      pop\n        /* \"#utility.yul\":8432:8433   */\n      dup3\n        /* \"#utility.yul\":8422:8457   */\n      tag_178\n      jumpi\n        /* \"#utility.yul\":8437:8455   */\n      tag_179\n      tag_99\n      jump\t// in\n    tag_179:\n        /* \"#utility.yul\":8422:8457   */\n    tag_178:\n        /* \"#utility.yul\":8479:8480   */\n      dup3\n        /* \"#utility.yul\":8476:8477   */\n      dup3\n        /* \"#utility.yul\":8472:8481   */\n      div\n        /* \"#utility.yul\":8467:8481   */\n      swap1\n      pop\n        /* \"#utility.yul\":8302:8487   */\n      swap3\n      swap2\n      pop\n      pop\n      jump\t// out\n\n    auxdata: 0xa26469706673582212209d124abeb90ca2e5406e7dff5ec7c1c5b84e2a8984adfd11a854ebc309c3352264736f6c63430008220033\n}\n",
				"bytecode": {
					"linkReferences": {},
					"object": "6080604052604051610a6c380380610a6c83398181016040528101906100259190610118565b5f3411610067576040517f08c379a000000000000000000000000000000000000000000000000000000000815260040161005e9061019d565b60405180910390fd5b805f5f6101000a81548173ffffffffffffffffffffffffffffffffffffffff021916908373ffffffffffffffffffffffffffffffffffffffff1602179055504260018190555034600281905550506101bb565b5f5ffd5b5f73ffffffffffffffffffffffffffffffffffffffff82169050919050565b5f6100e7826100be565b9050919050565b6100f7816100dd565b8114610101575f5ffd5b50565b5f81519050610112816100ee565b92915050565b5f6020828403121561012d5761012c6100ba565b5b5f61013a84828501610104565b91505092915050565b5f82825260208201905092915050565b7f4d7573742066756e642074686520636f6e7472616374000000000000000000005f82015250565b5f610187601683610143565b915061019282610153565b602082019050919050565b5f6020820190508181035f8301526101b48161017b565b9050919050565b6108a4806101c85f395ff3fe608060405234801561000f575f5ffd5b5060043610610086575f3560e01c80634cfc4d30116100595780634cfc4d301461010057806378e979251461011e578063a556f8461461013c578063b3daa6521461015a57610086565b80631a39d8ef1461008a578063379607f5146100a857806338af3eed146100c457806345d30a17146100e2575b5f5ffd5b610092610178565b60405161009f9190610482565b60405180910390f35b6100c260048036038101906100bd91906104c9565b61017e565b005b6100cc610394565b6040516100d99190610533565b60405180910390f35b6100ea6103b8565b6040516100f79190610482565b60405180910390f35b6101086103be565b6040516101159190610482565b60405180910390f35b6101266103c6565b6040516101339190610482565b60405180910390f35b6101446103cc565b6040516101519190610482565b60405180910390f35b610162610463565b60405161016f9190610482565b60405180910390f35b60025481565b5f5f9054906101000a900473ffffffffffffffffffffffffffffffffffffffff1673ffffffffffffffffffffffffffffffffffffffff163373ffffffffffffffffffffffffffffffffffffffff161461020c576040517f08c379a0000000000000000000000000000000000000000000000000000000008152600401610203906105a6565b60405180910390fd5b5f6102156103cc565b90505f8111610259576040517f08c379a00000000000000000000000000000000000000000000000000000000081526004016102509061060e565b60405180910390fd5b5f5f83146102675782610269565b815b9050818111156102ae576040517f08c379a00000000000000000000000000000000000000000000000000000000081526004016102a590610676565b60405180910390fd5b8060035f8282546102bf91906106c1565b925050819055505f5f5f9054906101000a900473ffffffffffffffffffffffffffffffffffffffff1673ffffffffffffffffffffffffffffffffffffffff168260405161030b90610721565b5f6040518083038185875af1925050503d805f8114610345576040519150601f19603f3d011682016040523d82523d5f602084013e61034a565b606091505b505090508061038e576040517f08c379a00000000000000000000000000000000000000000000000000000000081526004016103859061077f565b60405180910390fd5b50505050565b5f5f9054906101000a900473ffffffffffffffffffffffffffffffffffffffff1681565b60035481565b6303b5380081565b60015481565b5f62ed4e006001546103de91906106c1565b4210156103ed575f9050610460565b6303b538006001546103ff91906106c1565b421061041c57600354600254610415919061079d565b9050610460565b5f6001544261042b919061079d565b90505f6303b538008260025461044191906107d0565b61044b919061083e565b90506003548161045b919061079d565b925050505b90565b62ed4e0081565b5f819050919050565b61047c8161046a565b82525050565b5f6020820190506104955f830184610473565b92915050565b5f5ffd5b6104a88161046a565b81146104b2575f5ffd5b50565b5f813590506104c38161049f565b92915050565b5f602082840312156104de576104dd61049b565b5b5f6104eb848285016104b5565b91505092915050565b5f73ffffffffffffffffffffffffffffffffffffffff82169050919050565b5f61051d826104f4565b9050919050565b61052d81610513565b82525050565b5f6020820190506105465f830184610524565b92915050565b5f82825260208201905092915050565b7f4f6e6c792062656e65666963696172792063616e20636c61696d0000000000005f82015250565b5f610590601a8361054c565b915061059b8261055c565b602082019050919050565b5f6020820190508181035f8301526105bd81610584565b9050919050565b7f4e6f2066756e647320617661696c61626c6520666f7220636c61696d207965745f82015250565b5f6105f860208361054c565b9150610603826105c4565b602082019050919050565b5f6020820190508181035f830152610625816105ec565b9050919050565b7f416d6f756e74206578636565647320636c61696d61626c652062616c616e63655f82015250565b5f61066060208361054c565b915061066b8261062c565b602082019050919050565b5f6020820190508181035f83015261068d81610654565b9050919050565b7f4e487b71000000000000000000000000000000000000000000000000000000005f52601160045260245ffd5b5f6106cb8261046a565b91506106d68361046a565b92508282019050808211156106ee576106ed610694565b5b92915050565b5f81905092915050565b50565b5f61070c5f836106f4565b9150610717826106fe565b5f82019050919050565b5f61072b82610701565b9150819050919050565b7f5472616e73666572206661696c656400000000000000000000000000000000005f82015250565b5f610769600f8361054c565b915061077482610735565b602082019050919050565b5f6020820190508181035f8301526107968161075d565b9050919050565b5f6107a78261046a565b91506107b28361046a565b92508282039050818111156107ca576107c9610694565b5b92915050565b5f6107da8261046a565b91506107e58361046a565b92508282026107f38161046a565b9150828204841483151761080a57610809610694565b5b5092915050565b7f4e487b71000000000000000000000000000000000000000000000000000000005f52601260045260245ffd5b5f6108488261046a565b91506108538361046a565b92508261086357610862610811565b5b82820490509291505056fea26469706673582212209d124abeb90ca2e5406e7dff5ec7c1c5b84e2a8984adfd11a854ebc309c3352264736f6c63430008220033",
					"opcodes": "PUSH1 0x80 PUSH1 0x40 MSTORE PUSH1 0x40 MLOAD PUSH2 0xA6C CODESIZE SUB DUP1 PUSH2 0xA6C DUP4 CODECOPY DUP2 DUP2 ADD PUSH1 0x40 MSTORE DUP2 ADD SWAP1 PUSH2 0x25 SWAP2 SWAP1 PUSH2 0x118 JUMP JUMPDEST PUSH0 CALLVALUE GT PUSH2 0x67 JUMPI PUSH1 0x40 MLOAD PUSH32 0x8C379A000000000000000000000000000000000000000000000000000000000 DUP2 MSTORE PUSH1 0x4 ADD PUSH2 0x5E SWAP1 PUSH2 0x19D JUMP JUMPDEST PUSH1 0x40 MLOAD DUP1 SWAP2 SUB SWAP1 REVERT JUMPDEST DUP1 PUSH0 PUSH0 PUSH2 0x100 EXP DUP2 SLOAD DUP2 PUSH20 0xFFFFFFFFFFFFFFFFFFFFFFFFFFFFFFFFFFFFFFFF MUL NOT AND SWAP1 DUP4 PUSH20 0xFFFFFFFFFFFFFFFFFFFFFFFFFFFFFFFFFFFFFFFF AND MUL OR SWAP1 SSTORE POP TIMESTAMP PUSH1 0x1 DUP2 SWAP1 SSTORE POP CALLVALUE PUSH1 0x2 DUP2 SWAP1 SSTORE POP POP PUSH2 0x1BB JUMP JUMPDEST PUSH0 PUSH0 REVERT JUMPDEST PUSH0 PUSH20 0xFFFFFFFFFFFFFFFFFFFFFFFFFFFFFFFFFFFFFFFF DUP3 AND SWAP1 POP SWAP2 SWAP1 POP JUMP JUMPDEST PUSH0 PUSH2 0xE7 DUP3 PUSH2 0xBE JUMP JUMPDEST SWAP1 POP SWAP2 SWAP1 POP JUMP JUMPDEST PUSH2 0xF7 DUP2 PUSH2 0xDD JUMP JUMPDEST DUP2 EQ PUSH2 0x101 JUMPI PUSH0 PUSH0 REVERT JUMPDEST POP JUMP JUMPDEST PUSH0 DUP2 MLOAD SWAP1 POP PUSH2 0x112 DUP2 PUSH2 0xEE JUMP JUMPDEST SWAP3 SWAP2 POP POP JUMP JUMPDEST PUSH0 PUSH1 0x20 DUP3 DUP5 SUB SLT ISZERO PUSH2 0x12D JUMPI PUSH2 0x12C PUSH2 0xBA JUMP JUMPDEST JUMPDEST PUSH0 PUSH2 0x13A DUP5 DUP3 DUP6 ADD PUSH2 0x104 JUMP JUMPDEST SWAP2 POP POP SWAP3 SWAP2 POP POP JUMP JUMPDEST PUSH0 DUP3 DUP3 MSTORE PUSH1 0x20 DUP3 ADD SWAP1 POP SWAP3 SWAP2 POP POP JUMP JUMPDEST PUSH32 0x4D7573742066756E642074686520636F6E747261637400000000000000000000 PUSH0 DUP3 ADD MSTORE POP JUMP JUMPDEST PUSH0 PUSH2 0x187 PUSH1 0x16 DUP4 PUSH2 0x143 JUMP JUMPDEST SWAP2 POP PUSH2 0x192 DUP3 PUSH2 0x153 JUMP JUMPDEST PUSH1 0x20 DUP3 ADD SWAP1 POP SWAP2 SWAP1 POP JUMP JUMPDEST PUSH0 PUSH1 0x20 DUP3 ADD SWAP1 POP DUP2 DUP2 SUB PUSH0 DUP4 ADD MSTORE PUSH2 0x1B4 DUP2 PUSH2 0x17B JUMP JUMPDEST SWAP1 POP SWAP2 SWAP1 POP JUMP JUMPDEST PUSH2 0x8A4 DUP1 PUSH2 0x1C8 PUSH0 CODECOPY PUSH0 RETURN INVALID PUSH1 0x80 PUSH1 0x40 MSTORE CALLVALUE DUP1 ISZERO PUSH2 0xF JUMPI PUSH0 PUSH0 REVERT JUMPDEST POP PUSH1 0x4 CALLDATASIZE LT PUSH2 0x86 JUMPI PUSH0 CALLDATALOAD PUSH1 0xE0 SHR DUP1 PUSH4 0x4CFC4D30 GT PUSH2 0x59 JUMPI DUP1 PUSH4 0x4CFC4D30 EQ PUSH2 0x100 JUMPI DUP1 PUSH4 0x78E97925 EQ PUSH2 0x11E JUMPI DUP1 PUSH4 0xA556F846 EQ PUSH2 0x13C JUMPI DUP1 PUSH4 0xB3DAA652 EQ PUSH2 0x15A JUMPI PUSH2 0x86 JUMP JUMPDEST DUP1 PUSH4 0x1A39D8EF EQ PUSH2 0x8A JUMPI DUP1 PUSH4 0x379607F5 EQ PUSH2 0xA8 JUMPI DUP1 PUSH4 0x38AF3EED EQ PUSH2 0xC4 JUMPI DUP1 PUSH4 0x45D30A17 EQ PUSH2 0xE2 JUMPI JUMPDEST PUSH0 PUSH0 REVERT JUMPDEST PUSH2 0x92 PUSH2 0x178 JUMP JUMPDEST PUSH1 0x40 MLOAD PUSH2 0x9F SWAP2 SWAP1 PUSH2 0x482 JUMP JUMPDEST PUSH1 0x40 MLOAD DUP1 SWAP2 SUB SWAP1 RETURN JUMPDEST PUSH2 0xC2 PUSH1 0x4 DUP1 CALLDATASIZE SUB DUP2 ADD SWAP1 PUSH2 0xBD SWAP2 SWAP1 PUSH2 0x4C9 JUMP JUMPDEST PUSH2 0x17E JUMP JUMPDEST STOP JUMPDEST PUSH2 0xCC PUSH2 0x394 JUMP JUMPDEST PUSH1 0x40 MLOAD PUSH2 0xD9 SWAP2 SWAP1 PUSH2 0x533 JUMP JUMPDEST PUSH1 0x40 MLOAD DUP1 SWAP2 SUB SWAP1 RETURN JUMPDEST PUSH2 0xEA PUSH2 0x3B8 JUMP JUMPDEST PUSH1 0x40 MLOAD PUSH2 0xF7 SWAP2 SWAP1 PUSH2 0x482 JUMP JUMPDEST PUSH1 0x40 MLOAD DUP1 SWAP2 SUB SWAP1 RETURN JUMPDEST PUSH2 0x108 PUSH2 0x3BE JUMP JUMPDEST PUSH1 0x40 MLOAD PUSH2 0x115 SWAP2 SWAP1 PUSH2 0x482 JUMP JUMPDEST PUSH1 0x40 MLOAD DUP1 SWAP2 SUB SWAP1 RETURN JUMPDEST PUSH2 0x126 PUSH2 0x3C6 JUMP JUMPDEST PUSH1 0x40 MLOAD PUSH2 0x133 SWAP2 SWAP1 PUSH2 0x482 JUMP JUMPDEST PUSH1 0x40 MLOAD DUP1 SWAP2 SUB SWAP1 RETURN JUMPDEST PUSH2 0x144 PUSH2 0x3CC JUMP JUMPDEST PUSH1 0x40 MLOAD PUSH2 0x151 SWAP2 SWAP1 PUSH2 0x482 JUMP JUMPDEST PUSH1 0x40 MLOAD DUP1 SWAP2 SUB SWAP1 RETURN JUMPDEST PUSH2 0x162 PUSH2 0x463 JUMP JUMPDEST PUSH1 0x40 MLOAD PUSH2 0x16F SWAP2 SWAP1 PUSH2 0x482 JUMP JUMPDEST PUSH1 0x40 MLOAD DUP1 SWAP2 SUB SWAP1 RETURN JUMPDEST PUSH1 0x2 SLOAD DUP2 JUMP JUMPDEST PUSH0 PUSH0 SWAP1 SLOAD SWAP1 PUSH2 0x100 EXP SWAP1 DIV PUSH20 0xFFFFFFFFFFFFFFFFFFFFFFFFFFFFFFFFFFFFFFFF AND PUSH20 0xFFFFFFFFFFFFFFFFFFFFFFFFFFFFFFFFFFFFFFFF AND CALLER PUSH20 0xFFFFFFFFFFFFFFFFFFFFFFFFFFFFFFFFFFFFFFFF AND EQ PUSH2 0x20C JUMPI PUSH1 0x40 MLOAD PUSH32 0x8C379A000000000000000000000000000000000000000000000000000000000 DUP2 MSTORE PUSH1 0x4 ADD PUSH2 0x203 SWAP1 PUSH2 0x5A6 JUMP JUMPDEST PUSH1 0x40 MLOAD DUP1 SWAP2 SUB SWAP1 REVERT JUMPDEST PUSH0 PUSH2 0x215 PUSH2 0x3CC JUMP JUMPDEST SWAP1 POP PUSH0 DUP2 GT PUSH2 0x259 JUMPI PUSH1 0x40 MLOAD PUSH32 0x8C379A000000000000000000000000000000000000000000000000000000000 DUP2 MSTORE PUSH1 0x4 ADD PUSH2 0x250 SWAP1 PUSH2 0x60E JUMP JUMPDEST PUSH1 0x40 MLOAD DUP1 SWAP2 SUB SWAP1 REVERT JUMPDEST PUSH0 PUSH0 DUP4 EQ PUSH2 0x267 JUMPI DUP3 PUSH2 0x269 JUMP JUMPDEST DUP2 JUMPDEST SWAP1 POP DUP2 DUP2 GT ISZERO PUSH2 0x2AE JUMPI PUSH1 0x40 MLOAD PUSH32 0x8C379A000000000000000000000000000000000000000000000000000000000 DUP2 MSTORE PUSH1 0x4 ADD PUSH2 0x2A5 SWAP1 PUSH2 0x676 JUMP JUMPDEST PUSH1 0x40 MLOAD DUP1 SWAP2 SUB SWAP1 REVERT JUMPDEST DUP1 PUSH1 0x3 PUSH0 DUP3 DUP3 SLOAD PUSH2 0x2BF SWAP2 SWAP1 PUSH2 0x6C1 JUMP JUMPDEST SWAP3 POP POP DUP2 SWAP1 SSTORE POP PUSH0 PUSH0 PUSH0 SWAP1 SLOAD SWAP1 PUSH2 0x100 EXP SWAP1 DIV PUSH20 0xFFFFFFFFFFFFFFFFFFFFFFFFFFFFFFFFFFFFFFFF AND PUSH20 0xFFFFFFFFFFFFFFFFFFFFFFFFFFFFFFFFFFFFFFFF AND DUP3 PUSH1 0x40 MLOAD PUSH2 0x30B SWAP1 PUSH2 0x721 JUMP JUMPDEST PUSH0 PUSH1 0x40 MLOAD DUP1 DUP4 SUB DUP2 DUP6 DUP8 GAS CALL SWAP3 POP POP POP RETURNDATASIZE DUP1 PUSH0 DUP2 EQ PUSH2 0x345 JUMPI PUSH1 0x40 MLOAD SWAP2 POP PUSH1 0x1F NOT PUSH1 0x3F RETURNDATASIZE ADD AND DUP3 ADD PUSH1 0x40 MSTORE RETURNDATASIZE DUP3 MSTORE RETURNDATASIZE PUSH0 PUSH1 0x20 DUP5 ADD RETURNDATACOPY PUSH2 0x34A JUMP JUMPDEST PUSH1 0x60 SWAP2 POP JUMPDEST POP POP SWAP1 POP DUP1 PUSH2 0x38E JUMPI PUSH1 0x40 MLOAD PUSH32 0x8C379A000000000000000000000000000000000000000000000000000000000 DUP2 MSTORE PUSH1 0x4 ADD PUSH2 0x385 SWAP1 PUSH2 0x77F JUMP JUMPDEST PUSH1 0x40 MLOAD DUP1 SWAP2 SUB SWAP1 REVERT JUMPDEST POP POP POP POP JUMP JUMPDEST PUSH0 PUSH0 SWAP1 SLOAD SWAP1 PUSH2 0x100 EXP SWAP1 DIV PUSH20 0xFFFFFFFFFFFFFFFFFFFFFFFFFFFFFFFFFFFFFFFF AND DUP2 JUMP JUMPDEST PUSH1 0x3 SLOAD DUP2 JUMP JUMPDEST PUSH4 0x3B53800 DUP2 JUMP JUMPDEST PUSH1 0x1 SLOAD DUP2 JUMP JUMPDEST PUSH0 PUSH3 0xED4E00 PUSH1 0x1 SLOAD PUSH2 0x3DE SWAP2 SWAP1 PUSH2 0x6C1 JUMP JUMPDEST TIMESTAMP LT ISZERO PUSH2 0x3ED JUMPI PUSH0 SWAP1 POP PUSH2 0x460 JUMP JUMPDEST PUSH4 0x3B53800 PUSH1 0x1 SLOAD PUSH2 0x3FF SWAP2 SWAP1 PUSH2 0x6C1 JUMP JUMPDEST TIMESTAMP LT PUSH2 0x41C JUMPI PUSH1 0x3 SLOAD PUSH1 0x2 SLOAD PUSH2 0x415 SWAP2 SWAP1 PUSH2 0x79D JUMP JUMPDEST SWAP1 POP PUSH2 0x460 JUMP JUMPDEST PUSH0 PUSH1 0x1 SLOAD TIMESTAMP PUSH2 0x42B SWAP2 SWAP1 PUSH2 0x79D JUMP JUMPDEST SWAP1 POP PUSH0 PUSH4 0x3B53800 DUP3 PUSH1 0x2 SLOAD PUSH2 0x441 SWAP2 SWAP1 PUSH2 0x7D0 JUMP JUMPDEST PUSH2 0x44B SWAP2 SWAP1 PUSH2 0x83E JUMP JUMPDEST SWAP1 POP PUSH1 0x3 SLOAD DUP2 PUSH2 0x45B SWAP2 SWAP1 PUSH2 0x79D JUMP JUMPDEST SWAP3 POP POP POP JUMPDEST SWAP1 JUMP JUMPDEST PUSH3 0xED4E00 DUP2 JUMP JUMPDEST PUSH0 DUP2 SWAP1 POP SWAP2 SWAP1 POP JUMP JUMPDEST PUSH2 0x47C DUP2 PUSH2 0x46A JUMP JUMPDEST DUP3 MSTORE POP POP JUMP JUMPDEST PUSH0 PUSH1 0x20 DUP3 ADD SWAP1 POP PUSH2 0x495 PUSH0 DUP4 ADD DUP5 PUSH2 0x473 JUMP JUMPDEST SWAP3 SWAP2 POP POP JUMP JUMPDEST PUSH0 PUSH0 REVERT JUMPDEST PUSH2 0x4A8 DUP2 PUSH2 0x46A JUMP JUMPDEST DUP2 EQ PUSH2 0x4B2 JUMPI PUSH0 PUSH0 REVERT JUMPDEST POP JUMP JUMPDEST PUSH0 DUP2 CALLDATALOAD SWAP1 POP PUSH2 0x4C3 DUP2 PUSH2 0x49F JUMP JUMPDEST SWAP3 SWAP2 POP POP JUMP JUMPDEST PUSH0 PUSH1 0x20 DUP3 DUP5 SUB SLT ISZERO PUSH2 0x4DE JUMPI PUSH2 0x4DD PUSH2 0x49B JUMP JUMPDEST JUMPDEST PUSH0 PUSH2 0x4EB DUP5 DUP3 DUP6 ADD PUSH2 0x4B5 JUMP JUMPDEST SWAP2 POP POP SWAP3 SWAP2 POP POP JUMP JUMPDEST PUSH0 PUSH20 0xFFFFFFFFFFFFFFFFFFFFFFFFFFFFFFFFFFFFFFFF DUP3 AND SWAP1 POP SWAP2 SWAP1 POP JUMP JUMPDEST PUSH0 PUSH2 0x51D DUP3 PUSH2 0x4F4 JUMP JUMPDEST SWAP1 POP SWAP2 SWAP1 POP JUMP JUMPDEST PUSH2 0x52D DUP2 PUSH2 0x513 JUMP JUMPDEST DUP3 MSTORE POP POP JUMP JUMPDEST PUSH0 PUSH1 0x20 DUP3 ADD SWAP1 POP PUSH2 0x546 PUSH0 DUP4 ADD DUP5 PUSH2 0x524 JUMP JUMPDEST SWAP3 SWAP2 POP POP JUMP JUMPDEST PUSH0 DUP3 DUP3 MSTORE PUSH1 0x20 DUP3 ADD SWAP1 POP SWAP3 SWAP2 POP POP JUMP JUMPDEST PUSH32 0x4F6E6C792062656E65666963696172792063616E20636C61696D000000000000 PUSH0 DUP3 ADD MSTORE POP JUMP JUMPDEST PUSH0 PUSH2 0x590 PUSH1 0x1A DUP4 PUSH2 0x54C JUMP JUMPDEST SWAP2 POP PUSH2 0x59B DUP3 PUSH2 0x55C JUMP JUMPDEST PUSH1 0x20 DUP3 ADD SWAP1 POP SWAP2 SWAP1 POP JUMP JUMPDEST PUSH0 PUSH1 0x20 DUP3 ADD SWAP1 POP DUP2 DUP2 SUB PUSH0 DUP4 ADD MSTORE PUSH2 0x5BD DUP2 PUSH2 0x584 JUMP JUMPDEST SWAP1 POP SWAP2 SWAP1 POP JUMP JUMPDEST PUSH32 0x4E6F2066756E647320617661696C61626C6520666F7220636C61696D20796574 PUSH0 DUP3 ADD MSTORE POP JUMP JUMPDEST PUSH0 PUSH2 0x5F8 PUSH1 0x20 DUP4 PUSH2 0x54C JUMP JUMPDEST SWAP2 POP PUSH2 0x603 DUP3 PUSH2 0x5C4 JUMP JUMPDEST PUSH1 0x20 DUP3 ADD SWAP1 POP SWAP2 SWAP1 POP JUMP JUMPDEST PUSH0 PUSH1 0x20 DUP3 ADD SWAP1 POP DUP2 DUP2 SUB PUSH0 DUP4 ADD MSTORE PUSH2 0x625 DUP2 PUSH2 0x5EC JUMP JUMPDEST SWAP1 POP SWAP2 SWAP1 POP JUMP JUMPDEST PUSH32 0x416D6F756E74206578636565647320636C61696D61626C652062616C616E6365 PUSH0 DUP3 ADD MSTORE POP JUMP JUMPDEST PUSH0 PUSH2 0x660 PUSH1 0x20 DUP4 PUSH2 0x54C JUMP JUMPDEST SWAP2 POP PUSH2 0x66B DUP3 PUSH2 0x62C JUMP JUMPDEST PUSH1 0x20 DUP3 ADD SWAP1 POP SWAP2 SWAP1 POP JUMP JUMPDEST PUSH0 PUSH1 0x20 DUP3 ADD SWAP1 POP DUP2 DUP2 SUB PUSH0 DUP4 ADD MSTORE PUSH2 0x68D DUP2 PUSH2 0x654 JUMP JUMPDEST SWAP1 POP SWAP2 SWAP1 POP JUMP JUMPDEST PUSH32 0x4E487B7100000000000000000000000000000000000000000000000000000000 PUSH0 MSTORE PUSH1 0x11 PUSH1 0x4 MSTORE PUSH1 0x24 PUSH0 REVERT JUMPDEST PUSH0 PUSH2 0x6CB DUP3 PUSH2 0x46A JUMP JUMPDEST SWAP2 POP PUSH2 0x6D6 DUP4 PUSH2 0x46A JUMP JUMPDEST SWAP3 POP DUP3 DUP3 ADD SWAP1 POP DUP1 DUP3 GT ISZERO PUSH2 0x6EE JUMPI PUSH2 0x6ED PUSH2 0x694 JUMP JUMPDEST JUMPDEST SWAP3 SWAP2 POP POP JUMP JUMPDEST PUSH0 DUP2 SWAP1 POP SWAP3 SWAP2 POP POP JUMP JUMPDEST POP JUMP JUMPDEST PUSH0 PUSH2 0x70C PUSH0 DUP4 PUSH2 0x6F4 JUMP JUMPDEST SWAP2 POP PUSH2 0x717 DUP3 PUSH2 0x6FE JUMP JUMPDEST PUSH0 DUP3 ADD SWAP1 POP SWAP2 SWAP1 POP JUMP JUMPDEST PUSH0 PUSH2 0x72B DUP3 PUSH2 0x701 JUMP JUMPDEST SWAP2 POP DUP2 SWAP1 POP SWAP2 SWAP1 POP JUMP JUMPDEST PUSH32 0x5472616E73666572206661696C65640000000000000000000000000000000000 PUSH0 DUP3 ADD MSTORE POP JUMP JUMPDEST PUSH0 PUSH2 0x769 PUSH1 0xF DUP4 PUSH2 0x54C JUMP JUMPDEST SWAP2 POP PUSH2 0x774 DUP3 PUSH2 0x735 JUMP JUMPDEST PUSH1 0x20 DUP3 ADD SWAP1 POP SWAP2 SWAP1 POP JUMP JUMPDEST PUSH0 PUSH1 0x20 DUP3 ADD SWAP1 POP DUP2 DUP2 SUB PUSH0 DUP4 ADD MSTORE PUSH2 0x796 DUP2 PUSH2 0x75D JUMP JUMPDEST SWAP1 POP SWAP2 SWAP1 POP JUMP JUMPDEST PUSH0 PUSH2 0x7A7 DUP3 PUSH2 0x46A JUMP JUMPDEST SWAP2 POP PUSH2 0x7B2 DUP4 PUSH2 0x46A JUMP JUMPDEST SWAP3 POP DUP3 DUP3 SUB SWAP1 POP DUP2 DUP2 GT ISZERO PUSH2 0x7CA JUMPI PUSH2 0x7C9 PUSH2 0x694 JUMP JUMPDEST JUMPDEST SWAP3 SWAP2 POP POP JUMP JUMPDEST PUSH0 PUSH2 0x7DA DUP3 PUSH2 0x46A JUMP JUMPDEST SWAP2 POP PUSH2 0x7E5 DUP4 PUSH2 0x46A JUMP JUMPDEST SWAP3 POP DUP3 DUP3 MUL PUSH2 0x7F3 DUP2 PUSH2 0x46A JUMP JUMPDEST SWAP2 POP DUP3 DUP3 DIV DUP5 EQ DUP4 ISZERO OR PUSH2 0x80A JUMPI PUSH2 0x809 PUSH2 0x694 JUMP JUMPDEST JUMPDEST POP SWAP3 SWAP2 POP POP JUMP JUMPDEST PUSH32 0x4E487B7100000000000000000000000000000000000000000000000000000000 PUSH0 MSTORE PUSH1 0x12 PUSH1 0x4 MSTORE PUSH1 0x24 PUSH0 REVERT JUMPDEST PUSH0 PUSH2 0x848 DUP3 PUSH2 0x46A JUMP JUMPDEST SWAP2 POP PUSH2 0x853 DUP4 PUSH2 0x46A JUMP JUMPDEST SWAP3 POP DUP3 PUSH2 0x863 JUMPI PUSH2 0x862 PUSH2 0x811 JUMP JUMPDEST JUMPDEST DUP3 DUP3 DIV SWAP1 POP SWAP3 SWAP2 POP POP JUMP INVALID LOG2 PUSH5 0x6970667358 0x22 SLT KECCAK256 SWAP14 SLT BLOBBASEFEE 0xBE 0xB9 0xC LOG2 JUMPF 0x406E PUSH30 0xFF5EC7C1C5B84E2A8984ADFD11A854EBC309C3352264736F6C6343000822 STOP CALLER "
				},
				"gasEstimates": {
					"creation": {
						"codeDepositCost": "442400",
						"executionCost": "infinite",
						"totalCost": "infinite"
					},
					"external": {
						"CLIFF_DURATION()": "391",
						"VESTING_DURATION()": "325",
						"beneficiary()": "2552",
						"claim(uint256)": "infinite",
						"claimableAmount()": "infinite",
						"releasedAmount()": "2492",
						"startTime()": "2447",
						"totalAmount()": "2426"
					}
				},
				"methodIdentifiers": {
					"CLIFF_DURATION()": "b3daa652",
					"VESTING_DURATION()": "4cfc4d30",
					"beneficiary()": "38af3eed",
					"claim(uint256)": "379607f5",
					"claimableAmount()": "a556f846",
					"releasedAmount()": "45d30a17",
					"startTime()": "78e97925",
					"totalAmount()": "1a39d8ef"
				}
			},
			"storageLayout": {
				"storage": [
					{
						"astId": 4,
						"contract": "TokenVesting.sol:TokenVesting",
						"label": "beneficiary",
						"offset": 0,
						"slot": "0",
						"type": "t_address"
					},
					{
						"astId": 6,
						"contract": "TokenVesting.sol:TokenVesting",
						"label": "startTime",
						"offset": 0,
						"slot": "1",
						"type": "t_uint256"
					},
					{
						"astId": 8,
						"contract": "TokenVesting.sol:TokenVesting",
						"label": "totalAmount",
						"offset": 0,
						"slot": "2",
						"type": "t_uint256"
					},
					{
						"astId": 10,
						"contract": "TokenVesting.sol:TokenVesting",
						"label": "releasedAmount",
						"offset": 0,
						"slot": "3",
						"type": "t_uint256"
					}
				],
				"types": {
					"t_address": {
						"encoding": "inplace",
						"label": "address",
						"numberOfBytes": "20"
					},
					"t_uint256": {
						"encoding": "inplace",
						"label": "uint256",
						"numberOfBytes": "32"
					}
				}
			},
			"userdoc": {
				"kind": "user",
				"methods": {
					"claim(uint256)": {
						"notice": "Claim a specific amount, or pass 0 to claim everything available."
					}
				},
				"notice": "Task 3: Token Vesting with 6-Month Cliff",
				"version": 1
			}
		}
	}
}